:040000006F10807588
:100004000000000000000000C8050000CC0500004E
:1000140000000000021700000000000000000000C3
:100024000417000006170000000000000000000094
:10003400741F000000000000000100000000000028
:100044000C1700000E17000010170000000000003D
:1000540012170000141700001617000018170000EC
:100064001A1700001C1700001E17000020170000BC
:10007400221700002417000026170000281700008C
:100084002A1700002C1700002E170000301700005C
:10009400321700003417000036170000381700002C
:1000A4003A1700003C1700003E17000040170000FC
:1000B40042170000441700004617000048170000CC
:1000C4004A1700004C1700004E170000501700009C
:1000D40052170000541700005617000000000000DB
:1000E400000000000000000000000000000000000C
:0C00F40000000000000000000000000000
:10010000130181F806C216C41AC61EC822CA26CC1C
:100110002ACE2ED032D236D43AD63ED842DA46DC77
:100120004ADECEC0D2C2D6C4DAC6DEC8E2CAE6CC47
:10013000EACEEED0F2D2F6D4FAD6FED8F3220030D0
:1001400096DA9702002083A2E2FA23A02200F32588
:1001500010342EC003A1C182EF20302917030020E4
:10016000032343F903210300824273901234D652D1
:10017000739002309240A2423243C2435244E2445E
:10018000724582551256A2563257C2575258E258FB
:1001900072598649164AA64A364BC64B564CE64C0F
:1001A000764D865D165EA65E365FC65F13018107DB
:1001B0007300203013000000130000001300000043
:1001C00013000000130000001300000013000000E3
:1001D00013000000130000001300000013000000D3
:1001E00013000000130000001300000013000000C3
:1001F00013000000130000001300000013000000B3
:1002000083A2C182938202E073900234170100201E
:10021000032141EE024182403243C2435244E24450
:10022000724582551256A2563257C2575258E2585A
:1002300072598649164AA64A364BC64B564CE64C6E
:10024000764D865D165EA65E365FC65FD652A1020B
:1002500073900230A24213018107828013000000D4
:100260001300000013000000130000001300000042
:100270001300000013000000130000001300000032
:100280001300000013000000130000001300000022
:100290001300000013000000130000001300000012
:1002A0001300000013000000130000001300000002
:1002B00013000000130000001300000013000000F2
:1002C00013000000130000001300000013000000E2
:1002D00013000000130000001300000013000000D2
:1002E00013000000130000001300000013000000C2
:1002F00013000000130000001300000013000000B2
:10030000F322003093F272FF130380181203B3E25A
:100310006200711523205500130585FA10C12115BF
:10032000232005009302000063870200711523203B
:100330000500FD12D5BF71150CC1828000000000C0
:1003400000000000000000000000000000000000AD
:10035000000000000000000000000000000000009D
:10036000000000000000000000000000000000008D
:10037000000000000000000000000000000000007D
:10038000000000000000000000000000000000006D
:10039000000000000000000000000000000000005D
:1003A000000000000000000000000000000000004D
:1003B000000000000000000000000000000000003D
:1003C000000000000000000000000000000000002D
:1003D000000000000000000000000000000000001D
:1003E0000000000000000000000000000000397163
:1003F00001436EC619A0397141536AC866CA62CCFE
:100400005ECE19A0397101535AD056D252D44ED66D
:100410004AD826DA22DC06DE3301614082824111AD
:100420004AC026C222C406C68282B24D4101024D94
:10043000924C224CB24B4101024B924A224AB249A1
:100440004101024992442244B240410182803D432D
:100450002A876373C3029377F700BDEFADE5937608
:1004600006FF3D8ABA960CC34CC30CC74CC7410764
:10047000E36BD7FE11E28280B306C3408A0697027F
:10048000000096966780A6002307B700A306B70072
:100490002306B700A305B7002305B700A304B700E0
:1004A0002304B700A303B7002303B700A302B700D8
:1004B0002302B700A301B7002301B700A300B700D0
:1004C0002300B700828093F5F50F93968500D58DB4
:1004D00093960501D58D61B793962700970200008A
:1004E00096968682E78086FA9680C1171D8F3E9683
:1004F000E374C3F8A5B7EFF29FF23D45EF00503328
:1005000085470DC14145EF00B032894701CD4545D2
:10051000EF0010328D4719C54945EF007031933710
:1005200015008A073E8531BFEFF2FFEC814409498F
:10053000B74900000D4AB74A0000114BB74B000005
:10054000054CB74C0000453F2A8419C9638AA400B2
:1005500063062503636BA9001385CC63630D8401D7
:100560006545EF202062A284F9BF630C4501138525
:100570008B66E31764FFEF20B07ADDB71385C9649B
:10058000DDBF1385CA65C5BFEFF27FE9411185451F
:100590003D45E12685454145C92685454545752E9C
:1005A000854549455D2EB7450000370500007C00B4
:1005B00029478146130600109385856713058552E8
:1005C000EF2000004101B5BD7300203001A0EFF223
:1005D0007FE301112A8A8545114502C202C402C681
:1005E00002C802CA02CC02CEEF102055854537055D
:1005F0002000EF106056B714014013040040F14989
:1006000005494C001385048022C24EC64AC4EF102F
:10061000C01D8567938707804C00138504803EC208
:100620004EC64AC4EF10601CB707FFBFE0853754C1
:1006300000403ECA0C08916713050440FC8652C86E
:10064000EF108031130504408545EF10C03D85450E
:1006500013050440EF10E0410561F9BBEFF29FDAAA
:10066000B75400402A842E8A328993890440B70502
:1006700002004E85EF10C0447DF913850440854586
:10068000EF10203F138504408545B7040300B75998
:100690000040EF10C03A8504938A0940A68556852C
:1006A000EF10A04065DD1385094001469305E00A7F
:1006B000B7040700B7590040EF10003E93842408A8
:1006C000938A0940A6855685EF10203E65DD935537
:1006D0000A011385094093F5F50FB7040700B759D0
:1006E0000040EF10A03A93844408938A0940A685FD
:1006F0005685EF10803B65DD9375FA0F1385094031
:10070000B7040700B7590040EF10403893844408FD
:10071000138A0940A6855285EF10203965DD1385BF
:1007200009408545B7040300B7590040EF10203158
:100730008504138A0940A6855285EF10003765DDD0
:100740001385094005469305E00AB7090300B7542D
:100750000040EF106034890993840440CE852685DB
:10076000EF10A03465DDB7540040B709001022999E
:10077000054A9384044093890904B307894063635D
:10078000FA0437550040814513050540370900102C
:10079000B7540040EF10E02D13090904138A0440F8
:1007A0008549CA855285EF10A031E31C35FF1385BA
:1007B0000440EF10E02D08A0854513850440EF109C
:1007C000A0299DB985452685EF10A02ACE852685CE
:1007D000EF10002FE31C45FF26850504EF10402B8A
:1007E000A30FA4FE59BFEFF2FFC1B75400402A8403
:1007F0002E8A328993890440B70502004E85EF1096
:10080000202C7DF9138504408545B7040300B759B2
:100810000040EF10C0228504938A0940A6855685C2
:10082000EF10A02865DD1385094001469305E00A15
:10083000B7040700B7590040EF100026938424083E
:10084000938A0940A6855685EF10202665DD9355CD
:100850000A011385094093F5F50FB7040700B7594E
:100860000040EF10A02293844408938A0940A68593
:100870005685EF10802365DD138509409375FA0FC7
:10088000B7090700B7540040EF104020938949088A
:1008900093840440CE852685EF10202165DDB75472
:1008A0000040B709070022999384044093894908BE
:1008B000631A240137550040854513050540EF10A4
:1008C000A0199DBE05048345F4FF2685EF10001C8A
:1008D000CE852685EF10601D65DDD9BFEFF23FB4F0
:1008E00041112AC42EC628001D468145ED3D410117
:1008F00089BEEFF2DFB2411128001D468145B93BA8
:10090000148790860C863745000013054568EF2054
:10091000F02F41013DB6EFF29FB0374500000111C5
:1009200013054569EF20D03F374500001305C56A20
:10093000EF20103F5146A9450A850D333745000089
:100940001305456CEF20D03D374500008A8513051F
:10095000C56DEF20B02B0561EDB4FD4763E6A7043C
:10096000371702401C4F93E747001CCFD5C185477E
:100970006393F5409D4763E7A7043717014083263B
:10098000078013162500BD47B397C70093C7F7FF2D
:10099000F58FA146B396C600D58F2320F7803395F7
:1009A000A5002328A78082809307F00363E8A704AB
:1009B000371702401C4F93E787001CCFD5C98547E6
:1009C000639BF53A130785FF1377F70F9D4763E2A3
:1009D000E720371701409316250003264780F18A48
:1009E000BD47B397D70093C7F7FFF18F2146B316E2
:1009F000D600D58F2322F780854555B79307F0059C
:100A0000E3EEA7FA371702401C4F93E7070175B7CB
:100A10001D476365A70237170140931525008326FC
:100A20000780BD47B397B70093C7F7FFF58F114510
:100A30003315B5005D8D2320A7808280930785FF45
:100A400093F7F70F6366F7020A05B717014003A78C
:100A500047809375C5013D453315B5001345F5FF36
:100A6000798D1147B315B7004D8D23A2A7808280E1
:100A7000130705FF1377F70F9D4763E6E7020A05A3
:100A8000B717014003A7C7819375C5013D453315CD
:100A9000B5001345F5FF798D1147B315B7004D8D9E
:100AA00023AEA7808280130705FE1377F70F63E656
:100AB000E7020A0537170140832707C09375C50170
:100AC0003D453315B5001345F5FF7D8D9147B39531
:100AD000B7004D8D2320A7C08280130785FD1377B3
:100AE000F70F63E6E7020A05B717014003A747C0FF
:100AF0009375C5013D453315B5001345F5FF798D57
:100B00001147B315B7004D8D23A2A7C082801307EC
:100B100005FD1377F70F63E6E7020A05B7170140F3
:100B200003A7C7C19375C5013D453315B5001345EE
:100B3000F5FF798D1147B315B7004D8D23AEA7C0D2
:100B40008280130705FC1377F70F63E4E7020A05B9
:100B5000371701401C439375C5013D453315B5005A
:100B60001345F5FF7D8D9147B395B7004D8D08C3B3
:100B70008280130785FB1377F70F63E4E7020A050A
:100B8000371701405C439375C5013D453315B500EA
:100B90001345F5FF7D8D9147B395B7004D8D48C343
:100BA0008280130705FB1377F70F63EFE7320A051F
:100BB000371701405C4F9375C5013D453315B500AE
:100BC0001345F5FF7D8D9147B395B7004D8D48CF07
:100BD0008280130705FF1377F70F63ECE7023717DF
:100BE0000140931625000326C781F18ABD47B397BC
:100BF000D70093C7F7FFF18F2146B316D600D58FE4
:100C0000232EF7803D8985473395A7002320A782AF
:100C10008280130705FE1377F70F63ECE702B71620
:100C200001401317250003A606C0718BBD47B3977B
:100C3000E70093C7F7FFF18F21463317E600D98FFE
:100C400023A0F6C03D8985473395A70023A8A6C0F9
:100C50008280130785FD1377F70F63ECE7023717E0
:100C6000014093162500032647C0F18ABD47B3977C
:100C7000D70093C7F7FFF18F2146B316D600D58F63
:100C80002322F7C03D8985473395A7002328A7C0B5
:100C90008280130705FD1377F70F63ECE702371720
:100CA0000140931625000326C7C1F18ABD47B397BB
:100CB000D70093C7F7FFF18F2146B316D600D58F23
:100CC000232EF7C03D8985473395A7002320A7C26F
:100CD0008280130705FC1377F70F63E9E702B71665
:100CE0000140131725009042718BBD47B397E70071
:100CF00093C7F7FFF18F21463317E600D98F9CC2C7
:100D00003D8985473395A70088CA8280130785FBF4
:100D10001377F70F63E4E702B716014013172500B6
:100D2000D042718BBD47B397E70093C7F7FFF18FB0
:100D300021463317E600D98FDCC2D9B7130705FB6C
:100D40001377F70F63E2E71AB71601401317250070
:100D5000D04E718BBD47B397E70093C7F7FFF18F74
:100D600021463317E600D98FDCCE3D898547339580
:100D7000A70088D2828089476398F5169D4763E073
:100D8000A702371701409315250083260780BD472A
:100D9000B397B70093C7F7FFF58F0D4551B9130708
:100DA00085FF1377F70F63E1E7020A05B7170140E4
:100DB00003A747809375C5013D453315B50013451D
:100DC000F5FF798D0D4779B9130705FF1377F70FF5
:100DD00063E1E7020A05B717014003A7C7819375CE
:100DE000C5013D453315B5001345F5FF798D0D4718
:100DF0006DB1130705FE1377F70F63E1E7020A05EC
:100E000037170140832707C09375C5013D4533154A
:100E1000B5001345F5FF7D8D8D4755B9130785FD49
:100E20001377F70F63E1E7020A05B717014003A73D
:100E300047C09375C5013D453315B5001345F5FF12
:100E4000798D0D477DB9130705FD1377F70F63E122
:100E5000E7020A05B717014003A7C7C19375C5018B
:100E60003D453315B5001345F5FF798D0D47E1B1CB
:100E7000130705FC1377F70F63E0E7020A0537173E
:100E800001401C439375C5013D453315B50013451D
:100E9000F5FF7D8D8D47C9B9130785FB1377F70FD4
:100EA00063E0E7020A05371701405C439375C5010B
:100EB0003D453315B5001345F5FF7D8D8D47E9B9E7
:100EC000130705FB1377F70F63E0E7020A053717EF
:100ED00001405C4F9375C5013D453315B500134581
:100EE000F5FF7D8D8D47CDB1828085473D4763906D
:100EF000F50A6369A7003395A500B717014023A839
:100F0000A7808280930605FF93F6F60F9D4763EA5C
:100F1000D7003D89B395A500B717014023A0B7823C
:100F20008280930605FE93F6F60F636AD7003D892B
:100F3000B395A500B717014023A8B7C082809306D8
:100F400005FD93F6F60F63EAD7003D89B395A5003A
:100F5000B717014023A0B7C28280930605FC93F621
:100F6000F60F6369D7003D89B395A500B717014017
:100F70008CCB8280130705FB1377F70F63E9E70A31
:100F80003D89B395A500B71701408CD38280636972
:100F9000A7003395A700B717014023AAA780828036
:100FA000930605FE93F6F60F636AD7003D89B39763
:100FB000A70037170140232AF7C08280930605FC5B
:100FC00093F6F60F6369D7003D89B397A7003717EB
:100FD00001405CCB8280130705FF1377F70F9D4715
:100FE00063EBE700C1673D893395A700B717014060
:100FF00023A0A7828280130705FD1377F70F63EB09
:10100000E700C1673D893395A700B717014023A0CA
:10101000A7C28280130705FB1377F70F63E9E70088
:10102000C1673D893395A700B717014088D38280F7
:10103000DD472A8663EAA700B717014083A68780A9
:1010400033D5A60005898280130705FE1377F70FB5
:1010500063E9E700B717014003A787C03355A7002E
:10106000D5B7130705FC1377F70F0145E3EDE7FC50
:10107000B71701409C4733D5C700E9B78967938705
:10108000F7702A8763F3A7003E87420737050020E1
:101090003706002041838D471305850A294813062A
:1010A000C60AFD5833730703B306F50023806600B4
:1010B000B3D6F5403303F600858A2300D300FD172D
:1010C00033570703E39017FF8280EFF2AFB341116C
:1010D0002E84AA8981451305D00232C6393581454F
:1010E0001305C0021935814513058002FD3B81457A
:1010F00013059002DD3B916532469385456EA295BE
:1011000003C9050019C21369090801449384418287
:10111000214AB3878400B3558940882393C5F5FFDE
:1011200085890504D933E31644FF138501824E9562
:10113000082185455D3B41016FF00FB0EFF28FACA8
:1011400037090020B704002001441309C90A938419
:10115000840A914933078900B387840010238C23C4
:101160001375F40F050495370545EF10B021E3130F
:1011700034FF6FF06FACEFF28FAA01449384418289
:101180002149B3878400882389450504EFF0EFFCEB
:10119000E31924FF89451305D002EFF00FFC8945C0
:1011A0001305C002EFF06FFB894513058002EFF0D5
:1011B000CFFA894513059002EFF02FFA6FF06FA870
:1011C000EFF2EFA50144938441822149B387840063
:1011D000882381450504113BE31A24FF814513054B
:1011E000D002213381451305C00201338145130527
:1011F0008002E539814513059002C5396FF06FA46F
:10120000EFF24FA04111EFF02FB8B704002037499B
:101210000000B7090020370A0020B70A0020374431
:10122000000003A5840C7D5693056100EF10C005F6
:101230000DC52C831305C974EF20401DA52EC52EA6
:1012400083C7290B22455C8683473A0BDC8683C71C
:101250005A0B5C87B245EFF06FE813058476EF20F8
:10126000202CC1B7EFF20F9A3937993FB709002008
:101270003709002093044006370400208347290BD8
:1012800083C5490C0345340BB387970286053E9509
:10129000F5336D35E5B7EFF28F98B70400203709C5
:1012A0000020370400201305401FEF10B00D192651
:1012B0001307590C83C6540B1C23E386D7FE130671
:1012C000440C1C2214A393C717001CA2E9BFEFF221
:1012D0000F950945EF00F001EF10F07871651305E7
:1012E0000520EF10707BB707002083A5070737465E
:1012F0000000374500001306066F1305856FEF20C9
:10130000E01089455145EFF04FE585454D45EFF03B
:10131000CFE4EFF06FA761651305056AEFF02FAB1F
:10132000EFF06FDFB526EFF0CFDC014689450D45C4
:10133000EF00D06EB707002023A4A70C19E53745AE
:10134000000013050572EF20A01D374500001305AE
:10135000C572EF20E01CB7070020B7450000371525
:1013600000009387C70B154781461306001093852D
:10137000057313054526EF10A0243745000013051B
:101380008573EF20E019B7070020B7450000371537
:1013900000009387870B154781461306001093853D
:1013A000C57313050520EF10A021B7070020B7452E
:1013B0000000371500009387070C15478146130678
:1013C00000109385457413056529EF10601FEFF039
:1013D000AF9BEF10203F01456FF0AF86935745005C
:1013E0002947B387E7023D893E951375F50F828043
:1013F000EFF24F8137540040AA892E8993040440AC
:10140000B70502002685EF00A06B7DF913050440A7
:10141000854537040300B754004015250504138A99
:101420000440A2855285EF00406865DD13850440C5
:1014300001469305000D37040700B7540040A92D5D
:1014400013042408138A0440A2855285B92D6DDD4A
:1014500093F5F90F1385044037540040B704070093
:1014600035259384440893090440A6854E85352D7F
:101470006DDDB70500109385050813050440892527
:1014800009C5CA8513050440112537040700B75460
:1014900000401304440813890440A2854A8531257D
:1014A0006DDD854513850440452B6FE0FFF8EFE2C5
:1014B0007FF5375400402A8993040440B7050200A1
:1014C0002685FD2B65FD1305044085453704030083
:1014D000B7540040AD23050493890440A2854E858E
:1014E000E9236DDD1385044001469305000D3704A3
:1014F0000700B75400404D23130424089389044087
:10150000A2854E855D236DDD9375F90F138504402B
:1015100037040700B7540040952B1304440813897F
:101520000440A2854A8551236DDD1385044085451D
:1015300037040300B75400401923050413890440FD
:10154000A2854A859D236DDD1385044005469305DC
:10155000100DB7040300375400403D2B89041304D9
:101560000440A685228591236DDDB7040010375411
:1015700000409384040413090440A6854A85892306
:1015800001CD130504402923AA8485451305044091
:10159000E12126856FE05FEA81454A85D929F1BFBF
:1015A000EFE2FFE781453945A135A1453D45893544
:1015B0006FE03FE9EFE21FE50145D53D0535B7098D
:1015C0000020A38AA90A0545DD35093DB70400209E
:1015D000A389A40A0945E13D9377050426892A8455
:1015E000B7040020A9C315847D890588C53B09C8B7
:1015F000AD4763F5A7002389A40A01A83105E5BF1B
:10160000B147E31AF5FE2389040A83C6590B034642
:10161000390B83C5240B374500001305C579EF103E
:10162000F05E6FE07FE11375F5034D3BE9B7EFE244
:101630001FDF1945AD3D5D3337090020230BA90A93
:101640001545B5357D89593BB7040020238AA40A86
:101650001145B13D1375F5035133370400202308BC
:10166000A40A0D45A9351D89953BB70700200347FE
:10167000690B83C6440B0346040BAA85A388A70AFB
:101680003745000013058577EF1050586FE07FDB7A
:10169000EFE2FFD841112937313F513F4545013D28
:1016A0002AC649452935B2452A8637450000130523
:1016B000857BEF10B05541016FE0BFD8B7170240EE
:1016C0009843B70600F99386F6F51367170098C399
:1016D000D84313670705D8C3D843758FD8C33727B6
:1016E00002401443F19A14C3144393E6260014C332
:1016F000D8431377F7F0D8C3D843D8C3828001A06A
:1017000001A001A001A001A001A001A001A001A0D1
:1017100001A001A001A001A001A001A001A001A0C1
:1017200001A001A001A001A001A001A001A001A0B1
:1017300001A001A001A001A001A001A001A001A0A1
:1017400001A001A001A001A001A001A001A001A091
:1017500001A001A001A001A097F1FF1F93818111B9
:10176000174100201301018A173500001305051FDA
:1017700097F5FF1F938505891386818363FAC5005A
:101780008322050023A0550011059105E3EAC5FE5B
:1017900017F5FF1F1305859197250020938505BB3D
:1017A0006377B500232005001105E36DB5FEFD420A
:1017B000739002BC894273904280B72200009382EA
:1017C000028073A0023097F2FFFF9382E28393E2DC
:1017D000320073905230EFF07FEE97020000938258
:1017E00042AF73901234730020309845937707010D
:1017F0001378F70081C7DC413368F80094418147D2
:1018000013F6F60F39C21C410146854E3D4F930F2A
:10181000800293028004214EB398CE00B3F51601E6
:101820006391B80213132600B3156F0093C5F5FF3B
:10183000ED8F33136800B367F3006317F70D232AA6
:1018400015010506E31AC6FD1CC14166130606F024
:10185000758E3DC23716014093050680631BB50A9D
:1018600083A74180A145854E3D4F930F800293028F
:101870008004414E3393BE0033F666006312C30208
:10188000139625000116B318CF0093C8F8FFB3F7DD
:10189000F8003316C800D18F6319F709232A6500B1
:1018A0008505E399C5FD371601405CC193050680A7
:1018B0006312B50823A2F180C16763E6F604504DB8
:1018C0008147054E3D4F930F800293028004A14E45
:1018D00093850701B315BE00B3F8B60063911503F5
:1018E0009398270033131F011343F3FF3376C3008C
:1018F000B318180133E6C800631AF7054CC9850709
:10190000E398D7FD50CD8280E31D57F223281501BF
:101910000DBF930506C06315B50083A7818099B7F5
:10192000E312C5F483A7C18035BFE31B57F6232814
:101930006500BDB7930506C06315B50023A4F1800B
:10194000A5BFE31BC5F623A6F180BDB7E31957FA7F
:10195000B315FE000CD165B7EFE27FAC0111AA848C
:10196000422108082EC6592AE24737470F001307BD
:10197000072433D7E70242044180137404FC420475
:101980004180B245E1669386066A598C42044180E3
:10199000C2A09A2042074183799B420741839AA0C3
:1019A000984163E4E604060733D7E7029146BA8715
:1019B000420741836373D7009147C207C183DEACFE
:1019C0009E20DA21B62593E717009EA09E20558F12
:1019D000C207C18393F757BFD98F9EA09A25DE25F2
:1019E000D98F9EA405616FE0DFA5F221B166FD16D7
:1019F0006311D6028D463307D702B3D7E702C20779
:101A0000C1831397470119E393E717002167D98F23
:101A10007DB7E5463307D702B3D7E7021167C207A0
:101A2000C183D98FF9BF1E2189C593E717001EA175
:101A30008280C207C183F99BC207C183CDBF1E212B
:101A400089C593E707101EA18280C207C18393F75F
:101A5000F7EFC207C183C5BF1E2189C593E70720E1
:101A60001EA18280C207C18393F7F7DFC207C1833B
:101A7000C5BF1E2189C593E707401EA18280C2070A
:101A8000C18393F7F7BFC207C183C5BF0EA9828088
:101A90000A291375F50F828093F7E50F19C293E7B2
:101AA0001500C207C1831EA982805E290A2D420546
:101AB0005D8D6D8D220521810D8D13351500828080
:101AC000411102C402C693D7C5012AC63EC4A2472B
:101AD000A205A18199CBB247D1073EC6B247884340
:101AE00041016D8D3335A0008280B247C181E1078D
:101AF000EDB7B707002023A6A70C8280B777DC02DA
:101B0000938707C01CC13716024058421183937651
:101B1000F7003707002013070700369714235042B9
:101B200093F6F60F1376060833D7D70019E233D7AA
:101B3000D70258C118C558C5828099C537170240C9
:101B40001C4F5D8D08CF8280B7170240984F134518
:101B5000F5FF798D88CF828099C5371702405C4F99
:101B60005D8D48CF8280B7170240D84F1345F5FFEF
:101B7000798DC8CF8280EFE29F8A1629F577FD170D
:101B8000F58FF621DA250111D58F1EA95625FD778F
:101B90009387379FF58FD6212A842EC6D58F962519
:101BA000D58FB625D58F5EA55E29C207C18393F771
:101BB000F7CFD98F5EA908089137B74701409387BF
:101BC0000780B245631EF402F2476547B387E70218
:101BD0009841930640060A07B3D7E70233D7D702E6
:101BE000B3F7D7021207920793872703B3D7D70219
:101BF000BD8BD98FC207C1831EA405616FE07F84AE
:101C0000E247E1B791C55E250967D98F5EA582805D
:101C10005A25F977FD17F98FD5BF93F5F51F4EA11A
:101C200082800A216D8D3335A0008280B7070020A5
:101C30009387870E9843636FA702D043B386C7008C
:101C40006316D50054413E85B296D4C35041B306C5
:101C5000C500631CD700B706002083A6060D6306E7
:101C6000D70054431843B29654C118C16303F5001A
:101C700088C38280BA877DBFEFE2CFF841112AC6C0
:101C8000EF00703DB706002083A7060D3706002041
:101C90009386060D1306460D3245A1EF3707002047
:101CA0009307C71493F5F7001307C71481C513876B
:101CB000F700419BB70500209385850E23A2050000
:101CC00098C18D65C115AE97C19B23A2070023A0C3
:101CD0000700B385E7409CC21CC3B707002023AEB2
:101CE000B70CB707002023ACB70CB70700804CC374
:101CF0001CC2032A0600B377AA0085E39307F5FF09
:101D00003957636CF7009307050113F7F70041C3D8
:101D100013F707FF410763EBE706814489A0228799
:101D20002E8461A058C15CC011375840B70600200E
:101D30009386C60D9042B307E94023A0F90063F3F0
:101D4000C7009CC2B70700203367EA009387070EDD
:101D500058C09843C10423200400050798C3EF002E
:101D6000F04B93F7F400D1CB89679387078073908A
:101D7000073037460000374500001306C67C930540
:101D800000111305457FEF10606801A0BA8737077F
:101D900000200329870D9309870DE360F9F83707C1
:101DA00000200324870E1307870E50406374F6004B
:101DB0000C40B5F59442E38286F61440044314C304
:101DC0003307F64093060002E3F1E6F63305F4002C
:101DD0009376F500A1DA89679387078073900730BF
:101DE00037460000374500001306C67C9305F00C0B
:101DF0001305457FEF10806101A0268541016FE04A
:101E0000AFE355C1EFE2AFE1B7070020032745FF7D
:101E100083A7470D2A84B376F7009DE289679387ED
:101E200007807390073037460000374500001306DF
:101E3000C67C930540121305457FEF10205D01A07D
:101E4000832605FF9DC289679387078073900730BB
:101E500037460000374500001306C67C9305501234
:101E60001305457FEF10805A01A093C7F7FFF98F44
:101E7000232AF5FEEF00301EB70700209387870D59
:101E80009443032744FF130504FF369798C3793B17
:101E9000B70700209387470E9843050798C3EF00C4
:101EA000F0376FE00FDA8280B7E700E04157238711
:101EB000E7402386E740B7F700E023A0070023A20E
:101EC0000700814694C70147D8C7370700208325FC
:101ED00007071307401F814633D6E5023D4790CBE5
:101EE000D4CB98C38280EFE28FD3411102C6F3278F
:101EF00050303EC6B2470D478D8B6384E702896739
:101F000093870780739007303756000037450000ED
:101F1000130686819305600B1305457FEF10004F74
:101F200001A0B757002093870700BD8B9DC3896729
:101F300093870780739007303756000037450000BD
:101F4000130686819305B00B1305457FEF10004CF7
:101F500001A0993FB7E700E0116723A0E7100567EC
:101F600023A0E71023A80180EFE08FA901454101DC
:101F70006FE02FCD397106DE16DC1ADA1ED82AD6AC
:101F80002ED432D236D03ACE3ECC42CA46C872C6E1
:101F900076C47AC27EC07311013489679387078043
:101FA00073900730B7F700E023A20700EF00500C52
:101FB00011C5B7E700E0116723A0E7208967938781
:101FC00087887390073073110134F250E2525253F4
:101FD000C2533255A255125682567247E2475248B2
:101FE000C248324EA24E124F824F21617300203000
:101FF000896793870780739007309387018198439F
:10200000050798C38280138701811C438DE7EFE2A7
:102010000FC1896793870780739007303756000098
:102020003745000013068681930530101305457F60
:10203000EF10C03D01A0FD171CC391E7896793878E
:102040008788739007308280930785007D575CC135
:1020500018C55CC51CC92320050082802328050003
:1020600082809841FD5693078500631ED7001C4966
:10207000D843D8C10CC79CC5CCC31C4188C98507AF
:102080001CC18280B687D4439042E37DC7FECDB7A2
:10209000544118451C4998C654C3D4436393A600C1
:1020A000D8C39843232805007D1798C388438280AE
:1020B000EFE2EFB641112AC6253F3245005DA13758
:1020C0001335140041016FE0CFB7304115C2EFE284
:1020D0000FB558451445AA87329758C56364D70091
:1020E000184158C52E85CC47EF1020276FE06FB5FB
:1020F0008280EFE2CFB22A84E53D83445404130981
:102100004402E204E18463459002FD57A302F40413
:10211000DD3DF93D8344440413090401E204E184F4
:1021200063449002FD572302F404F13D6FE06FB168
:102130005C50E1DF4A85EF00D04019C1EF00B05C90
:10214000FD14E204E184C1B71C48E9DF4A85EF00D1
:10215000503F19C1EF00305BFD14E204E184C9B7C0
:10216000EFE2EFAB41111DE1896793870780739020
:1021700007303756000037450000130606849305E4
:1021800000111305457FEF10602801A05C5D2EC68D
:102190002A84BDC33841B3B7E702B9EF913D30405F
:1021A000585C1440232C0402B307E602B24554C025
:1021B0003387F600918FB6975CC4FD572302F40471
:1021C00018C4A302F40495E11C4899CB130504013B
:1021D000EF00303711C5B7E700E0116723A0E72013
:1021E0001D35054541016FE0CFA513050401A93D4B
:1021F00013054402913DEDB789679387078073907B
:102200000730375600003745000013060684930553
:1022100050141305457FEF10601F01A0EFE22FA0BF
:10222000411129C1B3B7A502AA848DEF3305B502C8
:10223000930770FB63E8A702130585042EC6EFF031
:10224000BFA32A8401CDB245AA8799C1930785040B
:102250002CC01CC044DC85452285193722854101EC
:102260006FE02F9E896793870780739007303756FA
:10227000000037450000130606849305601C130513
:10228000457FEF10A01801A0EFE2EF96011132C6D2
:102290001DE18967938707807390073037560000E8
:1022A0003745000013060684930510551305457F36
:1022B000EF10C01501A02A84AE898DE53C419DC375
:1022C000896793870780739007303756000037453A
:1022D000000013060684930550551305457FEF1043
:1022E000E01201A0EF00F04215E5B247014985C7B1
:1022F000896793870780739007303756000037450A
:102300000000130606849305A0551305457FEF10C2
:10231000E00F01A001497D5A930A440237EB00E027
:10232000916BB5A0B24789E7EFF0FFCD014541A819
:10233000631509002808EF00702FEFF0DFCC212B88
:10234000EFF01FCB83474404E207E1876394470122
:102350002302040483475404E207E187639447019E
:10236000A3020404EFF03FCA6C002808EF00702DB0
:1023700031ED2285353B39C5B2455685EF009010C9
:102380002285853B612D19E123207B210549EFF052
:102390003FC6045CC1D8CE852285FD143D3304DCE4
:1023A0001C4899CB13050401EF00B01911C5B7E71C
:1023B00000E0116723A0E720EFF0FFC405450561A9
:1023C0006FE0EF8622853533912DC9B7228515330D
:1023D000B1252285EFF0DFCD55D989BF15E5EFE2B4
:1023E0000F84896793870780739007303756000002
:1023F00085653745000013060684938585AC130573
:10240000457FEF10A00001A09DCD37360020930638
:10241000C614814701471306C614214883A8460005
:102420006398A80093173700B2978CC3C8C321A83C
:1024300091E783A8060063930800B6870507A10605
:10244000E31E07FDFDF38280EFD27FFD41112A8458
:102450002EC632C4EFF0DFB9834744047D572246CD
:10246000E207E187B2456394E7002302040483474F
:1024700054047D57E207E1876394E700A302040454
:1024800032C62EC4EFF03FB81C5CA245324689E745
:1024900013054402EF0090032285EFF09FC5410130
:1024A0006FD03FFA370700201307470F1C439443B0
:1024B000B70700209387471181E67D5798C3828034
:1024C000184358471843DDBFEFD2DFF33709002028
:1024D000B70700209304090F83A947122A849C4060
:1024E00088404111A388070411052EC6EFF05FBA9A
:1024F0007D579307090FB245631CE40295C9B737AE
:1025000000209387472F9440D84398C610479440A3
:10251000D0C694401047910654C29440910614C707
:1025200098405CCB9843050798C341016FD0DFF01A
:1025300098434E9440C3637B340137070020032542
:10254000870F8C439105EFF0DFB1C5B73707002047
:102550000325470F8C439105EFF0BFB0B70700206C
:10256000938747119843E372E4FC80C37DBFEFD2A9
:102570007FE937340020B709002013048430370A7C
:102580000020938409109C40EDDFEFF07FA65C44AF
:1025900003A9C70013054900EFF09FAF1307CA0F47
:1025A0001C43FD171CC39C40FD179CC0EFF0BFA54A
:1025B00003250903EFF0FF844A85EFF09F84D1B72C
:1025C000EFD27FE313192600AA8A4A852E8A368B1A
:1025D000BA8BBE89EFF04FEA1DC1AA8413054005EE
:1025E000EFF08FE92A8409C904D98147C146631AEB
:1025F0000A00230A050225A02685EFF09F807D555D
:1026000065A23307FA00030707003306F400230A24
:10261000E60201C78507E396D7FEA3010404B94784
:1026200063F4770389679387078073900730375681
:1026300000003745000013064685930590391305C1
:10264000457FEF00B05C01A0130A440052852326A9
:1026500074032322740523240404EFF03FA0130520
:102660008401EFF0BF9F3D471305C9FF3307774152
:10267000269500C818CC40D023060404A306040401
:1026800023070404A307040423080404A308040480
:102690005A86D6854199EFD0BFC608C06384090029
:1026A00023A08900EFF0DF94B70700209387C70FBE
:1026B0009843B7040020B7390020050798C3138753
:1026C000040F18439384040F1389C9186310070E6D
:1026D00080C0984385476316F7069389C918930A03
:1026E000C9124E85D109EFF03F96E39C3AFF37358A
:1026F0000020930A852B1305852BEFF0FF943735C7
:1027000000209309C52C1305C52CEFF0FF93373536
:1027100000201305052EEFF03F93373500201305F9
:102720008530EFF07F92373500201305452FEFF00D
:10273000BF91B707002023AA570FB707002023AC8B
:10274000370FB7070020938787109843050798C372
:10275000370700201307C7105C54144363F3F600D7
:102760001CC35147B387E702CA97D843144718C41C
:1027700054C4144723A246012324470198435CC84C
:10278000050798C3EFF03F88B707002083A707121B
:10279000054599CB9C40D8575C546377F700B7E761
:1027A00000E0116723A0E7206FD07FC8B7070020A3
:1027B00083A70712D9F79C40D8575C54E3E3E7F8A6
:1027C00080C041B7EFD2BFC5B7070020B7550000A2
:1027D0003725000093870711014781461306001033
:1027E000938585861305E556EFF09FDD0544631E4E
:1027F0008502EF007021631A85028967938707803D
:1028000073900730B70700207D5723AAE710B7075A
:10281000002023A0A712B707002023A20712EFF081
:102820008FEC83A741816FD0DFC1FD57E31BF5FE1D
:102830008967938707807390073037560000856556
:102840003745000013064685938525841305457F8B
:10285000EF00D03B01A0B7070020938747109843B3
:10286000050798C38280B707002003A5471282801E
:10287000B707002083A7471063990718EFD23FBA24
:10288000B7070020938747128043050480C321ECDB
:10289000B70700209387470F9843184305C78967F8
:1028A000938707807390073037560000856537455A
:1028B000000013064685938595AC1305457FEF0010
:1028C000F03401A0370700201307870F944310430B
:1028D00090C3B707002014C3938787119843050757
:1028E00098C3EFF03FBC37060020930746119C4386
:1028F00037370020B7050020130646111307C71805
:102900009385050F01456375F4029C41D146DC5760
:10291000B387D7023E971843854763F3E700054521
:10292000B707002083A7871291C305456FD07FB1F9
:10293000370E0020B70E0020514F93074E0F9443DF
:10294000944281E6FD571CC2C9B79C43DC47DC4773
:10295000D4436374D40014C24DBF83A8870003A876
:10296000C700D44B1383470023A408012322180176
:1029700083A846006394680023A2060103A806000A
:1029800023AA07007D1823A00601945795CA03A81F
:10299000C70183A8070283AF46002324180183A838
:1029A000070223A208011388870163940F0123A261
:1029B000160103A8060023A407027D1823A0060120
:1029C0009386CE1003A8C70283A8060063F408010B
:1029D00023A00601B306E803BA9683A8460083AF96
:1029E000880023A4170123A6F70183AF880023A240
:1029F0006F0023A46800D4CB9C4285079CC29C41F5
:102A0000DC57E36CF8F205450DBFB707002093874C
:102A1000C71198430145050798C38280EFD29F9E56
:102A200037040020130444101C40411185E78967D6
:102A300093870780739007303756000085653745C8
:102A40000000130646859385558B1305457FEF00DF
:102A5000F01B01A0EFF0CFD91C40FD171CC01C409B
:102A600089CB01452AC6EFF00FDA324541016FD01C
:102A7000BF9CB707002083A7C70FE5D7B736002054
:102A80003735002081479386062E370F0020130527
:102A9000C518D14837030020370E0020854E59A8AD
:102AA000DC46DC47CC4F9053985790C503A80702EB
:102AB0002322B80003284700938587016313B800D9
:102AC00050C3104323A407027D1610C38C47D04780
:102AD000D84B1388470090C54CC24C436393050103
:102AE00050C3104323AA07007D1610C31307CF104D
:102AF000D0570C4363F3C50010C3330716032A975E
:102B00004C4383AF85008CC723A6F70183AF8500B4
:102B100023A20F0123A405010C43D8CB85050CC3C8
:102B20001307030F184358576366E60013078E1206
:102B30002320D70198422DF799C3EFF0BF96B7072E
:102B400000201387C71104431384C71199CC370998
:102B500000208549EFF0DFD109C59307891223A032
:102B60003701FD14E5F823200400B707002083A7F0
:102B70008712E38807EEB7E700E0116723A0E7209C
:102B80000545CDB519E5B7E700E0116723A0E720BB
:102B90008280EFD2DF88B707002083A7471041115A
:102BA0009DC389679387078073900730375600006D
:102BB00037450000130646859305B0541305457F3D
:102BC000EF00D00401A02AC6EFF0FFC832458145CE
:102BD000EFF09F8FEFF09FE411E5B7E700E011679A
:102BE00023A0E72041016FD0DF85B707002003A7AE
:102BF0004710B70700209387871201C7054798C37E
:102C0000828023A00700B70700201387C71018434E
:102C10001386C710B73700209387C7185148B306EB
:102C20000703B385D700884115C5C841A106BE96E4
:102C30004841C8C16314D5005441D4C1D146B3063C
:102C4000D702B697DC43D447B707002023A8D70E96
:102C500018C2828015E7EFD28FFC896793870780BF
:102C6000739007303756000085653745000013061E
:102C70004685938545C01305457FEF00207901A067
:102C80007D1771BFEFD2AFF905E58967938707809C
:102C900073900730375600008565374500001306EE
:102CA00046859385E5C11305457FEF00207601A099
:102CB000B70700202E8483A5070FE105EFF06FBA58
:102CC00085452285EFF05F806FD0AFF7EFD22FF50B
:102CD0002A8705E589679387078073900730375601
:102CE000000085653745000013064685938545C578
:102CF0001305457FEF00807101A0B707002093877F
:102D0000070F54432E858C4303A88600D4CD8C43F3
:102D100023A0050303A807008C46610823A2050130
:102D200003A807009C43610823A4060198D71C430D
:102D300085071CC311C27D55B285EFF0EFF86FD047
:102D40004FF05C45DC478DE7EFD26FED89679387E5
:102D500007807390073037560000856537450000BF
:102D600013064685938545C81305457F452501A073
:102D7000D04F945398579385870114C6D0C25043BF
:102D80006313B60054C3144323A40702FD1614C3EF
:102D90003707002003274710D45725EF8C47D0472B
:102DA000D84B90C5D04748434CC293854700631326
:102DB000B50050C3104323AA07007D1610C3370780
:102DC00000201307C71010436373D60014C3514784
:102DD0003386E602373700201307C718329750436F
:102DE000084690C7C8C708464CC10CC6D8CB1C4380
:102DF000014585071CC3B707002083A7070FDC57D1
:102E000063F8D700B7070020054723A4E71205455C
:102E10008280373700201307072E50430846D0CF53
:102E200088D308464CC10CC698D7D1B7B707002045
:102E300083A787111CC1B707002083A747125CC175
:102E40008280EFD2CFDD41111DE189679387078032
:102E5000739007303756000085653745000013062C
:102E600046859385F5CF1305457F4D2301A09DE150
:102E70008967938707807390073037560000856510
:102E80003745000013064685938505D01305457F19
:102E9000B52B01A02EC62AC4EFF08F95370700206E
:102EA000B70700201307070F83A647121C432245CC
:102EB000B24583C7170599CB1C43A3880704054473
:102EC000EFF06F94228541016FD0AFD79C417D57C1
:102ED0000144E387E7FE3706002003268611032816
:102EE000050058416307C80063E5E60023A005001C
:102EF000F9B73386E640E37BF6FE958FBA979CC11F
:102F00003537014475BFB7070020054723A4E712F2
:102F10008280B707002083A70712054581CBB7073A
:102F2000002003A547101335150006058280EFD257
:102F30000FCF37040020EFF0AF8B130484131C4035
:102F4000B1E7373500201309C5311305C531EFF05E
:102F5000AF8F373500209304053313050533EFF0A9
:102F6000AF8EB707002023A627130146B70700201E
:102F7000C145114523A89712EFF04FAA08C019C503
:102F8000B755000093854589EFF04FC5EFF0AF8747
:102F90006FD02FCBEFD2AFC84CC108C9AA876362EC
:102FA000B602184D158E0545637BE60093854700F4
:102FB000B707002003A50713EFF0AF8A01456FD0D4
:102FC0004FC86375D6000545E3FBD5FE93854700E2
:102FD000B707002003A5C712C5B7EFD24FC42A8494
:102FE000AE8432890C4CA6864A86A69522855D372A
:102FF00019E16FD00FC51C4C2285BE941C508297DE
:10300000D5B7EFD2CFC1B707002083A7C7124111B0
:10301000AA84DC472EC6C04713054400EFF04F8753
:1030200083474402324613F7470011CBA685228519
:103030006D371C502285829741016FD08FC0F99B5C
:103040002302F402FDB7EFD28FBD370400209306B0
:10305000C41298421C4391EBB707002093870713D3
:10306000904398C390C26FD0CFBD5C47FD55884355
:10307000493FF1BFEFD22FB815694111B70A0020BF
:10308000B7090020370B0020B70B00201309098770
:1030900083A7CA12984329CBDC47814C03AC0700B5
:1030A000EFF06FFBEFF02FFC83A749132A84938482
:1030B0004913130A8B13636CF50288C0638F0C02EB
:1030C00083A70B1390431336160003250A00B3059C
:1030D0008C40EFF06FB7EFF07F9411EDB7E700E0B1
:1030E000116723A0E72001A8854C014C55BFA13FE3
:1030F00080C0EFF0BF92214C0DA00146E36785FD33
:10310000EFF0DF91A2856285EFF0BFEFEDB7924758
:10311000B2458297824763DD070003250A00014616
:103120008A85EFF06F962DD582472245E3C107FED1
:1031300022445C489DE3EFF00FF39C40AA8C63743B
:10314000F500EFF05FF0824723A09401FD17E366DE
:10315000FCFC8A07CA979C43828713054400EFE072
:103160003FF3D1BF834744020C4C924693E71700CC
:103170002302F4026686B6952285EFF0BFE151DDA9
:103180008347440213F7470001CF1C4C92456686E3
:103190002285BE95EFF07FE41C5022858297B5BF53
:1031A000F99B2302F402CDBF83474402F99B23021B
:1031B000F402A5B783474402924593E71700230220
:1031C000F4020CCC95E189679387078073900730F0
:1031D00037560000374500001306C6899305903521
:1031E0001305457F252401A0E6866686E69522859F
:1031F000EFF05FDA1DB78347440213F727005DF74E
:103200002285EFE01FC011BFEFD26FA1EFF03FD2D8
:10321000B707002083A7871395E389679387078003
:103220007390073037560000374500001306C689F3
:10323000930590111305457FD12A01A0B7070020FF
:10324000B7550000373500009387C71339478146CB
:10325000130600109385458B13054507EFF04FB615
:103260004DDD6FD00F9EB707002083A707073717E4
:103270007A0013070720B3D7E7023707002093F738
:10328000F70F2301F7141307803EB387E7023707D0
:1032900000202310F7148280EFD26F982A841165E2
:1032A000011185452105EFE05F89930700403EC28B
:1032B0003715014085473EC44C00E147130505C062
:1032C0003EC6EFE08FD222C837440140B70708005E
:1032D0000C08130504803ECC02CA231E0100EFE057
:1032E0009F89854513050480EFE0DF9105616FD06C
:1032F0004F95EFD22F91B7440140AE8932890144F6
:1033000093840480634524014A856FD0EF9293052E
:1033100000042685EFE0FF907DD9B387890083857F
:10332000070026850504C205C181EFE01F8FD9BFC4
:10333000138781811C43B7360020938686343E95DF
:10334000636BD500B75600209386068063E5A60020
:1033500008C33E858280FD57EDBFB3C7A5008D8BA6
:103360003307C50081E78D4763EDC700AA87637EF9
:10337000E508942185078505A38FD7FEE3EBE7FEDB
:10338000828093763500AA8789CA942185078505AE
:10339000A38FD7FE93F63700C5BF9376C7FF13867A
:1033A00006FE63F0C70683A3050083A2450083AF32
:1033B000850003AFC50083AE050103AE450103A33D
:1033C000850183A8C5019385450223A0770003A842
:1033D000C5FF23A2570023A4F70123A6E70123A8D2
:1033E000D70123AAC70123AC670023AE1701938737
:1033F000470223AE07FF75B790419107910523AEB1
:10340000C7FEE3EBD7FEE3E6E7F6828039713EDAEA
:103410002ED232D436D63AD842DC46DE9387C181EA
:1034200022CC804326CA06CEAA8409C41C4C99E348
:103430002285FD290C4454102686228536C6EF00CD
:103440001015F2406244D24421618280011126CAE3
:103450004AC806CE22CC4EC652C4AA842E8901C5C3
:103460001C4D91E3F1219C4C804499E32685C921B0
:10347000971700009387C746631BF402C0405E2481
:10348000A18BB1C71C48A1C7FD59294A1C448345DB
:103490000900FD17B1E91CC463DD07062286A945B2
:1034A00026856920FD576308F502294535A0971741
:1034B00000009387E7446314F4008044C9B797176A
:1034C00000009387E73FE31CF4FAC0444DBFA28598
:1034D0002685192A55D97D55F2406244D244424985
:1034E000B249224A056182801CC4050963D70700DE
:1034F000184C63CAE700638845011C401387170016
:1035000018C08CA361B7228626850D20E31035F9FB
:10351000D9B71C401387170018C0294798A371B763
:103520009387C181AA8588436FF05FF2011122CC95
:1035300026CA4AC806CE4EC6AA842E89328401C540
:103540001C4D91E3F52697170000938767396317A1
:10355000F406C0401C4C1CC45E24A18BC1C31C4893
:10356000B5CF1C4808409379F90F1379F90F1D8DD9
:103570005C486346F500A2852685692C25E51C4438
:103580000505FD171CC41C401387170018C02380B5
:1035900037015C486388A7005E24858B81CBA947EF
:1035A0006316F900A2852685B5240DEDF24062442C
:1035B0004A85D2444249B24905618280971700008A
:1035C000938707346314F400804469B797170000A9
:1035D0009387072FE310F4F8C044ADBFA28526857A
:1035E000212041D17D59D9B741119387C18126C28C
:1035F000844322C44AC006C62A892E8489C49C4CAE
:1036000099E326853526971700009387672D631B5E
:10361000F402C0400317C40093170701C18393F657
:103620008700ADEA93F6070195EEA5472320F90040
:10363000136707045AA47D55B240224492440249BC
:1036400041018280971700009387872B6314F40051
:103650008044C9B79717000093878726E31CF4FAC4
:10366000C0444DBF918B9DC34C5889C993074404F6
:103670006384F5004A85292B232A04025E24232231
:10368000040093F7B7FD5EA41C481CC05E2493E7BA
:1036900087005EA41C4899EB5E241307002093F773
:1036A00007286385E700A2854A8591295E2413F7E0
:1036B00017001DC35C4823240400B307F0401CCC52
:1036C0001C480145B5FB8317C40013F707082DD725
:1036D00093E707045EA485B7898B014791E35848B7
:1036E00018C4F9BFDE25011122CC26CA06CE4AC86D
:1036F0004EC613F78700AA842E8479EBD841634D18
:10370000E000B841634AE0000145F2406244D2441F
:103710004249B2490561828058547DD703A904000B
:103720009396370123A0040063DB060670485E24ED
:10373000918B99C75C401D8E5C5899C33C401D8E8F
:103740005C540C50814626858297FD575A24631D90
:10375000F5009440F54763E8D706B7074020850792
:10376000B3D7D700858BA5C31C48232204001CC0F7
:103770009317370163D80700FD576314F5009C4089
:1037800091E368C84C5823A02401BDDD930744048D
:103790006384F5002685ED2E232A0402B5B70C506C
:1037A0000146854626850297FD572A86E311F5F8DE
:1037B0009C40B5DF75476385E70059476393E7048D
:1037C00023A0240191B7136707045AA47D5535BF80
:1037D00083A90501E38A09F203A905008D8B23A0C3
:1037E000350133093941014791E3D84918C4E35DF4
:1037F00020F11C540C50CA864E862685829763475A
:10380000A0005E2493E707045EA4C9B7AA99330910
:10381000A940F1BF9C49A5C3011122CC06CE2A8440
:1038200011C51C4D81E72EC62122B2459717000015
:103830009387070B639CF5004C408397C5009DC799
:1038400022856244F24005616FF0DFE997170000BE
:103850009387070B6394F5000C44C5B797170000D6
:1038600093870706E39BF5FC4C44C1BFF2406244DA
:1038700001450561828001458280411122C406C64E
:103880002A844EA572A523200500232205002324A7
:1038900005002322050623280500232A0500232CE2
:1038A0000500214681451305C505EFC05FBA97178E
:1038B0000000938787B45CD0971700009387A7B662
:1038C0001CD497170000938787BA5CD49717000021
:1038D0009387E7BC00D01CD8B240224441018280CB
:1038E00097050000938545F391AA411126C213065E
:1038F00080069384F5FFB384C4024AC02E8922C493
:1039000006C6938544072D2E2A8401CD2320050069
:1039100023222501310508C4138684068145EFC0A2
:103920001FB32285B2402244924402494101828061
:103930001C4DA5E7411106C622C4970700009387D6
:1039400067FA1CD5938701839C432324050423260F
:103950000504232805046314F50085471CCD2A843B
:10396000352848C022851D2808C42285052848C45A
:10397000484001469145EFF05FF008440546A545F3
:10398000EFF0BFEF48440946C945EFF01FEF854708
:103990001CCCB24022444101828082804111938735
:1039A000018326C284434AC006C69C4C22C42A898D
:1039B00081E72685EFF0DFF7938484048044DC40C0
:1039C000FD1763D607009C40B9CF8440C5BF0317DD
:1039D000C40039E7C17785072322040623200400A9
:1039E00023220400232404005CC423280400232A87
:1039F0000400232C0400214681451305C405EFC0B3
:103A00001FA5232A0402232C0402232404042326B2
:103A100004042285B240224492440249410182803A
:103A20001304840671BF91454A85EFF01FEC88C0EE
:103A300049FDB1472320F9000144E1BF797122D447
:103A40004AD052CC56CA5AC85EC606D626D24ECEE8
:103A50002A8AAE8A130485040149054BFD5B09ECF3
:103A6000B25022544A8592540259F249624AD24ACB
:103A7000424BB24B45618280044483294400FD19C6
:103A800063D409000040E1BFDE24637BFB00839721
:103A9000E40063877701A6855285829A3369A9007D
:103AA00093848406E9BF1971A6DAAE848395E50094
:103AB000A2DC86DE328463DB0500DE2423A0060060
:103AC00093F7070885E7930700401DA0300836C626
:103AD000EF007023B246E34205FE7247BD67F98FDF
:103AE0007977BA9793B717009CC2F1BF9307000488
:103AF0001CC0F6506654D654014509618280DE250B
:103B0000011122CC06CE26CA4AC8898B2E8489CFC1
:103B1000930774041CC01CC885475CC8F24062440B
:103B2000D24442490561828074003000AA84EFF0DB
:103B30009FF7A2452A892685212219E98317C40007
:103B400013F7072061FFF19B93E727005EA4C9B735
:103B500097070000938707D99CD45E2408C008C843
:103B600093E707085EA4A2475CC8B24781CF8315DC
:103B7000E4002685EF00501C11C55E24F19B93E7FD
:103B800017005EA45E243369F9002316240179B777
:103B9000DDC583A7C5FF411122C406C626C2138412
:103BA000C5FF63D307003E94AA84EF00B02097C7F7
:103BB000FF1F938767599C4391EF2322040097C707
:103BC000FF1F23A387582244B24026859244410117
:103BD0006F00701E637EF40014403307D4006396B8
:103BE000E7009843DC43369718C05CC0C9BFBA876A
:103BF000D84319C3E37DE4FE94433386D700631FA3
:103C000086001040B29694C33386D700E31DC7FAEE
:103C100010435843B29694C3D8C375B76375C400B4
:103C2000B1479CC04DB71040B306C4006316D7001F
:103C300014435843B29614C058C0C0C369B78280B9
:103C4000011126CA93843500F19806CE22CC4AC8C9
:103C50004EC6A104B14763F9F404B14463E8B40467
:103C60002A89EF00301597C7FF1F9387E74D9843C8
:103C70003A8439E497C7FF1F9387474D9C4381EBF4
:103C800081454A85812797C7FF1F23A1A74CA68599
:103C90004A850D2FFD59631B3507B1472320F900D5
:103CA0004A85EF00501129A0E3DA04FAB1471CC19C
:103CB0000145F2406244D2444249B24905618280E2
:103CC0001C40858F63C10704AD4663F6F6001CC037
:103CD0003E9404C001A85C406315870217C7FF1F0C
:103CE0002324F7464A85EF00100D1305B40093070F
:103CF000440061993307F5404DDF3A94898F1CC029
:103D00004DBF5CC3C5B722874040A5B7130435003B
:103D10007198E30085FCB305A4404A856525E31A44
:103D200035FBA5BF1C46FD171CC663DA0700184EFD
:103D300063C5E700A9476394F5006FF02FFF1C42AD
:103D40002E851387170018C28CA38280011122CC04
:103D500026CA4AC84EC652C406CE2A89AE893284C3
:103D6000B304D6007D5A63149400014509A80C20C1
:103D70004E864A85EFF01FFB0504E31645FFF2402F
:103D80006244D2444249B249224A05618280357177
:103D900022CD26CB4AC94EC706CF52C556C35AC1FB
:103DA000DEDEE2DCE6DAAA89AE843289368409C531
:103DB0001C4D99E3EFF0DFB797170000938747B2E8
:103DC0006398F40C83A44900DE24A18BE5C79C48CA
:103DD000F5C393070002A304F1029307000302D284
:103DE0002305F10222C6930B5002971A0000938A12
:103DF0002AB3054C294B4A841C2099C3639F770D35
:103E0000B30C2441638E0C00E6864A86A6854E8557
:103E1000EFF0DFF3FD57630FF51C9256E69636D2AE
:103E20001C206389071CFD571309140002C802CE29
:103E30003ECA02CCA309010482D483450900154679
:103E40005685A92F13041900C24751E913F707013A
:103E500009C713070002A309E10413F7870009C784
:103E60001307B002A309E104834609001307A00267
:103E7000638FE606F2474A8481462546182093055B
:103E80001400130707FD6377E60AB5CA3ECE85A87E
:103E9000971700009387C7A66395F40083A4890051
:103EA00025B7971700009387A7A1E39FF4F083A499
:103EB000C90019BFA6854E85EFF00FF319D97D55BE
:103EC000FA406A44DA444A49BA492A4A9A4A0A4BA9
:103ED000F65B665CD65C0D618280050431BF3305FC
:103EE00055413315AC00C98F3EC82289B9B7324756
:103EF00093064700184336C6634707023ACE182098
:103F00009307E002631DF70418309307A002631BB8
:103F1000F702B2470904138747009C433AC663C1BE
:103F200007023ECA2DA83307E04093E727003ACEA8
:103F30003EC8F1B7B387670385462E84BA973DBF65
:103F4000FD57C5B7050402CA81468147254618209A
:103F500093051400130707FD6374E606F9F20C20BD
:103F60000D46171500001305259C0D2D11CD971733
:103F700000009387679B1D8D93070004B397A700EC
:103F8000424505045D8D2AC80C201946171500000E
:103F90001305C599130914002304B102012535C185
:103FA00097C7FFFF9387070695E74247B247137706
:103FB000071009CF91073EC69257D2973ED225BD32
:103FC000B387670385462E84BA9751B79D07E19B57
:103FD000A107D5B7780097060000938666D7268696
:103FE0000C084E8597000000E7000000FD572A8A64
:103FF000E314F5FCDE2493F70704E39207EC125573
:10400000C1B5780097060000938686D426860C08F2
:104010004E85012AE1BF797156CA9C49BA8A9845F2
:1040200022D426D24ECE52CC06D64AD05AC85EC62C
:10403000AA892E84B284368A63D3E700BA879CC0EB
:104040000347340419C385079CC01C4093F707023B
:1040500081C79C4089079CC003290400137969002B
:10406000631A0900130B9401FD5B5C449840998F1F
:10407000634CF9041C408346340493F70702B336BB
:10408000D000A5EB13063404D2854E85829AFD57E5
:104090006303F5041C4011469840998B54448144B5
:1040A0006397C700B384E64063D3040081441C4493
:1040B00018486354F700998FBE94014969047D5BE9
:1040C00063982405014509A885465A86D2854E8500
:1040D000829A631E75017D55B25022549254025942
:1040E000F249624AD24A424BB24B4561828005098D
:1040F000ADBF3307D40013060003A301C704034771
:10410000540493871600A2978906A381E7049DBFF4
:1041100085462286D2854E85829AE30E65FB050987
:1041200045B7797122D426D24AD04ECE06D652CC8B
:1041300056CA5AC8B689942D930790063289AA8424
:104140002E8413863504638DF60263E2D706930747
:1041500080056386F61863EDD700638E062093070B
:104160003004638EF60A930A24042301D404C9A000
:10417000930730066385F60A93074006E395F6FE3B
:104180001C40084393F6070893054500C5C61C412B
:104190000CC363D807001307D002B307F040A30194
:1041A000E404970600009386E678294765A89307FC
:1041B00000076382F61663E5D7029307E00663897A
:1041C000F6189307F006E390F6FA0C401C4313F838
:1041D0000508138547006307080608C39C4385A8A4
:1041E00093075007E383F6FE930780076389F6126F
:1041F00093073007E399F6F61C43D0418145938637
:10420000470014C383AA07005685492E01C533050C
:10421000554148C05C401CC8A301040461A81C436C
:10422000930A2404938647009C4314C32301F40497
:104230008547D5B793F607041C410CC3B9DAC2070A
:10424000C18781BF93F5050408C3C9D99E2313070D
:10425000F0066387E60E970600009386A66D294751
:10426000A30104044C400CC463C5050008406D99CB
:1042700008C099E3B28A89CDB28AB3F5E702FD1A84
:10428000B6958C212380BA00B3D5E70263F0E70C22
:10429000A147631EF7001C40858B91CB58401C48FA
:1042A00063C7E70093070003A38FFAFEFD1A3306E6
:1042B000564110C84E87CA867000A2852685EFF049
:1042C0009FD57D5A631D450B7D55B25022549254A3
:1042D0000259F249624AD24A424B45618280A38226
:1042E000D504970600009386E6640C40084313F853
:1042F00005081C411105630D080208C313F71500DA
:1043000001C793E505020CC04147B9FB0C4093F58A
:10431000F5FD0CC0B1B79C4193E707029CC1930720
:104320008007A302F404970600009386E66175BF38
:1043300013F8050408C3E30308FCC207C1837DBF6B
:10434000970600009386065F214719BFAE8735B7F1
:1043500094411C43CC4913F80608138547006306B3
:10436000080008C39C438CC339A008C393F6060415
:104370009C43F5DA8EA323280400B28A25BF144893
:104380005686CA8526858299E30045F51C40898BAF
:104390008DE7B2474844E35AF5F23E853DB785467E
:1043A0005686CA8526858299E30065F3050A5C4432
:1043B0003247998FE345FAFEE9BF014A930A940117
:1043C0007D5BF5B7411122C42A842E8597F7FF1F24
:1043D00023AC07F606C6EFE0BFF5FD576319F500FD
:1043E00097F7FF1F938747F69C4391C31CC0B240C9
:1043F000224441018280411122C42E848395E5002C
:1044000006C65D2A634905007C48AA977CC8B2406D
:104410002244410182805E247D777D17F98F5EA45E
:10442000FDB7DE25011122CC26CA4AC84EC606CEEB
:1044300093F70710AA842E843289B68991C7839591
:10444000E500894601460D225E247D777D17F98FB0
:104450005EA48315E4006244F240CE864A86B249E7
:1044600042492685D244056125A8411122C42E84E3
:104470008395E50006C6CD28FD575A24631AF5003A
:10448000FD77FD17F98F5EA4B2402244410182807E
:104490008567D98F5EA468C8C5BF8395E50025A848
:1044A000411122C42A842E85B285368697F7FF1FD4
:1044B00023AC07E806C6EFE0DFE3FD576319F5001C
:1044C00097F7FF1F938747E89C4391C31CC0B240F6
:1044D000224441018280411122C42A842E8597F70B
:1044E000FF1F23A307E606C61122FD576319F50037
:1044F00097F7FF1F938747E59C4391C31CC0B240C9
:10450000224441018280411122C42A842E85B28531
:1045100097F7FF1F23AA07E206C6CD20FD576319B0
:10452000F50097F7FF1F938727E29C4391C31CC0B8
:10453000B240224441018280411122C42A842E8546
:1045400097F7FF1F23A207E006C6C920FD5763198E
:10455000F50097F7FF1F938727DF9C4391C31CC08B
:10456000B240224441018280411122C42A842E8516
:10457000B285368697F7FF1F23A807DC06C6792881
:10458000FD576319F50097F7FF1F9387E7DB9C43FF
:1045900091C31CC0B24022444101828093F5F50FC3
:1045A0002A966314C500014582801C21E38EB7FE64
:1045B0000505C5BF82808280411122C42A842E85D0
:1045C000B285368697F7FF1F23A007D806C6B928FD
:1045D000FD576319F50097F7FF1F9387E7D69C43B4
:1045E00091C31CC0B24022444101828093078005E0
:1045F00017F7FF1F232AF7D47D5582809307800584
:1046000017F7FF1F2322F7D47D558280930780057B
:1046100017F7FF1F232AF7D20145828093078005F1
:1046200017F7FF1F2322F7D27D558280930780055D
:1046300017F7FF1F232AF7D07D558280646120621F
:10464000616D204D454E550D0000000064612062F3
:10465000616D2072655455524E200D0064612062D8
:10466000616D205550200D0064612062616D204411
:104670004F574E200D0000007461736B20627574FB
:10468000000000006D3A256420683A256420733AE2
:1046900025640A005374617274205772697465202E
:1046A00032344378782E2E2E2E0D00005374617212
:1046B0007420526561642032344378782E2E2E2E79
:1046C0000D000000546865204461746120526561EA
:1046D0006465642049733A200D00000025730D0ABB
:1046E000000000003F065B4F666D7D077F6F000096
:1046F0005631302E342E360053797374656D436C09
:104700006B3A2564204652454552544F5320564536
:10471000523A2573205644443A256C640D0A000031
:104720007175656575206661696C0D00330D00005B
:104730007461736B32000000320D00007461736BA2
:10474000310000007461736B330000000D0A2074A7
:1047500061736B2031204E48414E205155455545DF
:104760003A25640D0A0000007461736B3120656E98
:104770007472790D000000007468753A2564206E2B
:104780006761793A2564207468616E673A25642010
:104790006E616D3A2564200D0A00000067696F3A6A
:1047A000256420706875743A256420676961793AD8
:1047B0002564200D0A0000006E6869657420646F2E
:1047C0003A25642E25640D0A000000002E2E2F4687
:1047D00072656552544F532F706F727461626C65CD
:1047E0002F4D656D4D616E672F686561705F342E6A
:1047F00063000000657272206174206C696E652030
:104800002564206F662066696C6520222573222E40
:10481000200D0A20000000002E2E2F4672656552E2
:10482000544F532F706F727461626C652F4743430E
:104830002F524953432D562F706F72742E63000010
:104840002E2E2F4672656552544F532F7175657524
:10485000652E63002E2E2F4672656552544F532FDE
:104860007461736B732E630049444C450000000073
:104870006431000064310000A8310000B431000050
:10488000F63100006431000064310000A8310000FE
:10489000B4310000546D7251000000002E2E2F46DE
:1048A00072656552544F532F74696D6572732E6330
:1048B00000000000546D7220537663000000000079
:1048C00000000000000000000000000000000000E8
:1048D00000000000000000000000000000000000D8
:1048E00000000000000000000000000000000000C8
:1048F00000000000000000000000000000000000B8
:1049000000000000000000000000000000000000A7
:10491000000000000000000000000000232D302BEC
:1049200020000000686C4C00656667454647000043
:1049300030313233343536373839414243444546D5
:104940000000000030313233343536373839616297
:084950006364656600000000CD
:104958000102030405060708010203040506070807
:1049680000000000DC480000FC480000BC480000D3
:10497800000000000000000000000000000000002F
:10498800000000000000000000000000000000001F
:10499800000000000000000000000000000000000F
:1049A80000000000000000000000000000000000FF
:1049B80000000000000000000000000000000000EF
:1049C800006CDC0244444444444444444444444465
:1049D800AAAAAAAA0E00000048330020100000204E
:1049E8002D2C282920212223242526270050002089
:0849F800100000200000000087
:00000001FF
