:040000006F005055E8
:100004000000000000000000080200000C020000D4
:1000140000000000FE0C00000000000000000000D2
:10002400000D0000020D00000000000000000000B0
:10003400040D000000000000C00B000000000000E0
:10004400080D00000A0D00000C0D00000000000067
:100054000E0D0000100D0000120D0000140D000024
:10006400160D0000180D00001A0D00001C0D0000F4
:100074001E0D0000200D0000220D0000240D0000C4
:10008400260D0000280D00002A0D00002C0D000094
:100094002E0D0000300D0000320D0000340D000064
:1000A400360D0000380D00003A0D00003C0D000034
:1000B4003E0D0000A0030000420D0000440D0000AE
:1000C400460D0000480D00004A0D00004C0D0000D4
:1000D4004E0D0000500D0000520D00000000000005
:1000E400000000000000000000000000000000000C
:0C00F40000000000000000000000000000
:10010000397101436EC619A0397141536AC866CA74
:1001100062CC5ECE19A0397101535AD056D252D456
:100120004ED64AD826DA22DC06DE330161408282CE
:1001300041114AC026C222C406C68282B24D410184
:10014000024D924C224CB24B4101024B924A224A40
:10015000B2494101024992442244B24041018280A5
:100160003D432A876373C3029377F700BDEFADE584
:10017000937606FF3D8ABA960CC34CC30CC74CC796
:100180004107E36BD7FE11E28280B306C3408A06C3
:100190009702000096966780A6002307B700A30683
:1001A000B7002306B700A305B7002305B700A304D3
:1001B000B7002304B700A303B7002303B700A302CB
:1001C000B7002302B700A301B7002301B700A300C3
:1001D000B7002300B700828093F5F50F9396850052
:1001E000D58D93960501D58D61B79396270097021B
:1001F000000096968682E78086FA9680C1171D8F4A
:100200003E96E374C3F8A5B773002030372500008D
:1002100013058559EF10002E01A0EFF27FF18545FF
:100220000545EF00106B85450565EF00B0681DB70B
:100230009386418623A2D1841387418A23A4E18433
:100240003146B7370240A386C74023A8D74023AC26
:10025000E74009472391E74261472393E74223950B
:10026000074221472397E7422399E7422393E74632
:100270002395E7462397E7462394E7429387018334
:1002800023800700A380070023810700A3810700C4
:1002900023820700A382070023830700A3830700AC
:1002A0008280EFF2FFE841118545414502C202C458
:1002B00002C6EF001062B70703003EC24C0093076E
:1002C0008004371501403EC6EF007043B707014078
:1002D000984F1367070898CF984F1367C70098CFB8
:1002E000984F719B98CF4101B5B5EFF27FE41DCDDA
:1002F000B73402407D37238004401D3F93079002AE
:10030000A38104402380F440FD572383F4409307E6
:1003100010F8A380F4409D472381F4400967B7E7B4
:1003200000E01384044023A2E7102DB59947373429
:1003300002402300F4402945EF00906DB7E700E04C
:1003400023000440096723A2E718C5B737370240E6
:100350002314A7428357A742C207C183F19BC20758
:10036000C1832315F7428280EFF29FDC13848184DE
:100370000C402A8613854192EF00707BDD29894766
:10038000630CF5002384018205471C406317E500D8
:10039000A380A70409455D3F75BBA3800704DDBFAB
:1003A000011122CE3734024026CC4ACA4EC852C66A
:1003B0001304044078207C301377F70F93762700DE
:1003C000638B064293F7F70F13F7070393060002B8
:1003D000630AD70293060003630BD71205EF13F7E6
:1003E000F7036304071089466316D70293F70704DF
:1003F00095C33E3493C707083EB408441375F50F00
:10040000A53709A893F7F703638EE70013072002C7
:10041000638DE70AB737024009472383E740938794
:100420000740D5A69387C1839E239384C183C207C7
:10043000C18381E7930700083EB083C7E18393F748
:100440000706E9FB03C781839546B7370240137758
:10045000F70F93870740630DD70499466314D706B7
:100460009E201307F003130400046365F700822045
:10047000420441801389C18403A541848325090076
:100480002286EF00D06A9E20818FC207C1839EA082
:1004900083270900A2972320F900B7370240239051
:1004A000874203D72742134707042391E7429DB7AA
:1004B000B83383C6A18213770708558FB8B30947AD
:1004C000BAB389BF23900702DDBF3E3493C7070448
:1004D0003EB43E34C207C183F19B93E727003EB48C
:1004E000938701832381070035B7184493F70704E6
:1004F00095D383C7E18383D7C183C207C183E39BBD
:1005000007F023100402930700043EB021B79307BD
:10051000200C3EB003A541849385E1831C21138602
:1005200081839CA11C311389E1831CA27C31782139
:10053000A207D98F1387C1831EA338313C211384AE
:10054000C18322075D8F938601849AA2583154217A
:10055000938701842207558F1388A1832310E80015
:1005600098219386A183137707066315071618222F
:100570002D461377F70F636FE61409660A07130613
:10058000C65A3297184302879A2389462183138AD1
:10059000C184630ED7048D466303D7068547631A6B
:1005A000F70689679387C75F2320FA00C94781440C
:1005B0001A2063F3E7001EA01E201307F00393091F
:1005C00000046367F70083590400C20993D9090145
:1005D00083250A004E86EF00905583270A00BE99B6
:1005E00023203A019307F00F639EF402E5A0896788
:1005F0009387C75D2320FA00930700024DBF86232F
:10060000814793F4F40F93B44400FD1493F4F40F72
:1006100045B781479304F00F61BF9E2393F7F70F0F
:100620002385F18203470900814762076187635F81
:1006300007001A209307000463E5E7001E20C207A5
:10064000C1831A201D8F420741831AA03737024009
:100650002310F7429307000C2311F74265BB83C7B1
:10066000B1821CA11A208547E3FEE7FA1EA05DBFF8
:100670009E2393F7F70FA385F18205472386E18236
:1006800055B7034709007D8B11EF9E23054793F76C
:10069000F70FE399E7F89387D18298231377E70F51
:1006A00098A349B70347090009467D8B6314C70225
:1006B0009E2393F7F70F99EF9E2293F7F70F638D21
:1006C000E702B736024093860640636AF7000547A3
:1006D0006381E702B73702401307F00CF9B3130642
:1006E00010086380C70213062008E395C7FEBAB658
:1006F00015BF239306023DB7B73702402395074243
:1007000015B7FAB205B7034709007D8B19E39E239D
:10071000D1B70346090009477D8AE31DE6FA9E2307
:1007200093F7F70FC5FB9A22B7370240938707402C
:100730001377F70F630AC70093062008E31CD7F866
:10074000BA371367370021A0BA371367C700BAB7A3
:10075000D1BD2382018639B78347090013874186BB
:1007600023100700FD8B9385418691EF83C7D182CB
:100770008144858B99C389471CA31A208947E3F3D9
:10078000E7E61EA085B50346090089479304F00FEC
:100790007D8AE314F6FE9E2293F7F70F6385C70464
:1007A0003737024013070740636FF6008546E3962C
:1007B000D7FC7E3331478144B18BE390E7FC85471A
:1007C0009CA181445DBF930610086388D7009306FF
:1007D0002008E394D7FA3E3711A07E338D8B0D4766
:1007E000E391E7FEE9BFB737024093870740BE3782
:1007F0003147B18BF5B79377170091CFA301040070
:10080000053C85477CA07244E2445249C249324AC1
:100810000561730020309377470085C75830938770
:10082000D182118B11CB98231367270098A39C23A7
:10083000B73702401147D5B698231377D70F98A33F
:10084000C5BF78A0C9B7EFF21F8DAA84AE89014455
:100850004D2B13090010B38789008C433385840026
:100860001104E123E31924FF2685EF0040616FF0B6
:10087000DF8DEFF25F8A13874192003318239306CE
:1008800010086306D70A63E9E60093060008630EC2
:10089000D70205456FF07F8B938441929307200820
:1008A000630AF70A93073008E315F7FE0547A38AA2
:1008B0000184238AE184B7570008370700202320EA
:1008C000F70823A2F1800945F1B703A701859387B3
:1008D00041928146938401851386419693F5F60FE4
:1008E000850763E985043A9480C09307F00F0145BA
:1008F000E3F287FA37040020F5219309040803A5E1
:10090000090013040408B92303A50900938541963F
:10091000138941960D3F98408147130707F098C00F
:1009200063E1E7021C40938707101CC011A05D29FA
:1009300001458DB7A833B305D700B29588A18506C8
:1009400071BFB306F90003C60610850793F7F70FCA
:1009500090A2F9B7138751851C238DEF854614A308
:1009600003A6018593060010918E13890185938556
:1009700041967D5563EED702B70900209389090897
:1009800003A50900C12903A5090093854196653D8A
:100990002320090003A64180A68781461387418052
:1009A00093F5F60F63EE85000145329400C3DDB583
:1009B0003387F5003297850708A393F7F70F5DBFDC
:1009C000B305D600C8238C2185068507E30AB5FC4C
:1009D0000545E1BFEFF2CFF541118545114502C252
:1009E00002C402C6EF00E06E8547371501403EC2E3
:1009F0004C0093078004130505803EC6092341017E
:100A00006FF04FF5EFF2CFF2371501401305058077
:100A10005929371501404129C92981457145EF0000
:100A2000406B6FF02FF3EFF2AFF0371901405D37F5
:100A3000A94401441309098085454A85052D01E52E
:100A400005041374F40FFD14154593F4F40FEF002F
:100A5000807FFDF0133574006FF0CFEFEFF24FEDB4
:100A60000111AA848545114502C202C402C602C80A
:100A700002CA02CC02CEB12D8545370502008D2D6C
:100A800091473EC23714014085473EC44C00E147C0
:100A9000130504803EC6A521A1473EC24C00930722
:100AA0008004130504803EC6374400408929B707F7
:100AB0000C000C08130504403ECC26C802CA231EB5
:100AC0000100AD25854513050440EF00006F056169
:100AD0006FF04FE8EFF2CFE537440040AA841309E6
:100AE0000440930500044A85EF00806F7DD9A685F8
:100AF00013050440EF00C06D6FF0CFE5EFF24FE358
:100B00003744004093040440930500022685EF001B
:100B1000206D7DD913050440EF00006C1375F50FAF
:100B20006FF04FE3EFF2CFE0D13F9307700563170B
:100B3000F508E9379307B00A6312F508C13713893E
:100B400041922A842300A900553F2A941374F40F7C
:100B5000A300A90065372301A90022951374F50F9E
:100B6000713F83470900A301A900130700082295DC
:100B700093F7D70F1374F50F6392E702814419A816
:100B8000B53FB30799002A948504C8A31374F40FE2
:100B900093F4F40F83471900E3E4F4FE8537631FF1
:100BA0008500C13989472A84630AF50001451D374C
:100BB000854705456303F4000145293F6FF08FD950
:100BC0001568028801A0EFF2AFD60145EFF0EFF112
:100BD000153D81450545F52981450565E129814595
:100BE00037050200312313052003B12D37250000FE
:100BF00013050561EF0010102945B125B7E700E0A6
:100C0000116723A0E71023A0E7206FF0AFD4EFF225
:100C10002FD27D20D92B716513050520852583A54D
:100C20008180372500001305C561EF00607B7522C8
:100C3000AA85372500001305C562EF00607AE53309
:100C400009E529450925413701A0EFF00FDD0545EC
:100C5000EFF0AFE939651305051037440040FD3B5F
:100C6000130404409305000222859D2B11C15D3DB4
:100C700083C74185E5DB2945F923B13701A0B717C3
:100C800002409843B70600F99386F6F513671700FC
:100C900098C3D84313670705D8C3D843758FD8C303
:100CA000372702401443F19A14C3144393E62600F5
:100CB00014C3D8431377F7F0D8C3D843D8C382807E
:100CC000B7160240DC42918313F7F700B707002004
:100CD00093870700BA979C23D4423777DC0293F7B7
:100CE000F70F130707C093F606083356F70099E28B
:100CF0003356F70223A4C180828001A001A001A085
:100D000001A001A001A001A001A001A001A001A0DB
:100D100001A001A001A001A001A001A001A001A0CB
:100D200001A001A001A001A001A001A001A001A0BB
:100D300001A001A001A001A001A001A001A001A0AB
:100D400001A001A001A001A001A001A001A001A09B
:100D500001A001A0970100209381C1B2174100209A
:100D60001301412A172500001305459797F5FF1F2A
:100D7000938545291386818263FAC5008322050085
:100D800023A0550011059105E3EAC5FE1385818274
:100D9000938501AF6377B500232005001105E36D4E
:100DA000B5FEFD42739002BC8D4273904280930267
:100DB000800873A0023097F2FFFF9382E22493E24F
:100DC000320073905230EFF09FEB97020000938255
:100DD00042E47390123473002030B7F7FF1F03A56D
:100DE00047708280B7066745B72702409386361260
:100DF0003797EFCDD4C31307B79AD8C3D4D3D8D37A
:100E00008280B7270240984BC166558F98CB984B8C
:100E1000B7060800558F98CBD847058B75FF984BC0
:100E2000C176FD16758F98CB8280B7270240984B0C
:100E3000C166558F98CB0CC1984BB7060400558FEF
:100E400098CBD847058B75FF984BC176FD16758FEB
:100E500098CB8280B7270240984BB7060200558F87
:100E600098CBC8CB984B1367070498CBD847058B12
:100E700075FF984B8176FD16758F98CB8280B727CA
:100E80000240984BC166558F98CBC8CB984B1367DF
:100E9000070498CBD847058B75FF984BC176FD1694
:100EA000758F98CB8280EFF2AFA8B71701401387F8
:100EB0000780631AE50085451145912C8145114550
:100EC000B9246FF02FA9138707C06318E500854583
:100ED0002145352C81452145E5B7E314F5FE8545CF
:100EE0004145352481454145E1BFEFF26FA4854579
:100EF0000545312C81450545192C6FF0AFA5984566
:100F0000937707011378F70081C7DC413368F80055
:100F10009441814713F6F60F39C21C410146854EB4
:100F20003D4F930F800293028004214EB398CE0070
:100F3000B3F516016391B80213132600B3156F00C1
:100F400093C5F5FFED8F33136800B367F3006317A4
:100F5000F70D232A15010506E31AC6FD1CC14166DB
:100F6000130606F0758E3DC23716014093050680C4
:100F7000631BB50A83A7C180A145854E3D4F930FE2
:100F8000800293028004414E3393BE0033F6660024
:100F90006312C302139625000116B318CF0093C83D
:100FA000F8FFB3F7F8003316C800D18F6319F709BB
:100FB000232A65008505E399C5FD371601405CC10C
:100FC000930506806312B50823A6F180C16763E626
:100FD000F604504D8147054E3D4F930F800293021A
:100FE0008004A14E93850701B315BE00B3F8B60087
:100FF000639115039398270033131F011343F3FFE5
:101000003376C300B318180133E6C800631AF70536
:101010004CC98507E398D7FD50CD8280E31D57F278
:10102000232815010DBF930506C06315B50083A7DE
:10103000018199B7E312C5F483A7418135BFE31B52
:1010400057F623286500BDB7930506C06315B500A4
:1010500023A8F180A5BFE31BC5F623AAF180BDB785
:10106000E31957FAB315FE000CD165B708456D8D2D
:101070003335A0008280B777DC02938707C01CC19C
:1010800037160240584211839376F7003707002045
:101090001307070136971423504293F6F60F137681
:1010A000060833D7D70019E233D7D70258C118C57D
:1010B00058C5828099C5371702405C4B5D8D48CB7F
:1010C0008280B7170240D84B1345F5FF798DC8CB06
:1010D000828099C5371702401C4F5D8D08CF8280F2
:1010E000B7170240984F1345F5FF798D88CF82805E
:1010F00099C5371702405C4F5D8D48CF8280B71786
:101100000240D84F1345F5FF798DC8CF828099C52D
:10111000371702405C475D8D48C78280B717024091
:10112000D8471345F5FF798DC8C78280EFF24F800D
:101130001629F577FD17F58FF621DA250111D58FE0
:101140001EA95625FD779387379FF58FD6212A84D0
:101150002EC6D58F9625D58FB625D58F5EA55E294F
:10116000C207C18393F7F7CFD98F5EA9080821374B
:10117000B747014093870780B245631EF402F247E8
:101180006547B387E7029841930640060A07B3D73D
:10119000E70233D7D702B3F7D70212079207938734
:1011A0002703B3D7D702BD8BD98FC207C1831EA433
:1011B00005616FE03FFAE247E1B791C55E25096737
:1011C000D98F5EA582805A25F977FD17F98FD5BF93
:1011D00093F5F51F4EA182804A211375F51F828079
:1011E0000A216D8D3335A000828083A78180371757
:1011F0007A0013070720B3D7E70293F7F70F238C82
:10120000F1841307803EB387E702239BF184828039
:10121000B7F700E0D8438146799BD8C303C78185DF
:101220003306A70290CBD4CB98431367070198C32A
:1012300098431367170298C3D843058B75DF98430B
:10124000799B98C38280B7F700E0D8438146799BA9
:10125000D8C303D761853306A70290CBD4CB98437C
:101260001367070198C398431367170298C3D843BD
:10127000058B75DF9843799B98C38280EFE25FEB23
:101280002A841165011185452105A1359307004088
:101290003EC23715014085473EC44C00E147130567
:1012A00005C03EC6A93922C837440140B707080027
:1012B0000C08130504803ECC02CA231E0100BD3574
:1012C000854513050480D53D05616FE0BFE8EFE279
:1012D0009FE4B7440140AE8932890144938404807D
:1012E000634524014A856FE05FE693050004268587
:1012F000C53D65DDB3878900838507002685050424
:10130000C205C181F135E9BF138781811C439386F2
:1013100001AF3E95636BD500B756002093860680DB
:1013200063E5A60008C33E858280FD57EDBFB3C7C5
:10133000A5008D8B3307C50081E78D4763EDC7009E
:10134000AA87637EE508942185078505A38FD7FECC
:10135000E3EBE7FE828093763500AA8789CA942161
:1013600085078505A38FD7FE93F63700C5BF937613
:10137000C7FF138606FE63F0C70683A3050083A29A
:10138000450083AF850003AFC50083AE050103AE02
:10139000450103A3850183A8C5019385450223A0C8
:1013A000770003A8C5FF23A2570023A4F70123A6B3
:1013B000E70123A8D70123AAC70123AC670023AE06
:1013C00017019387470223AE07FF75B79041910736
:1013D000910523AEC7FEE3EBD7FEE3E6E7F6828096
:1013E00039713EDA2ED232D436D63AD842DC46DED5
:1013F0009387C18122CC804326CA06CEAA8409C421
:101400001C4C99E32285ED290C4454102686228534
:1014100036C6EF007012F2406244D24421618280ED
:10142000011126CA4AC806CE22CC4EC652C4AA848E
:101430002E8901C51C4D91E3E1219C4C804499E328
:1014400026857D299717000093878721631BF40267
:10145000C0405E24A18BB1C71C48A1C7FD59294AD1
:101460001C4483450900FD17B1E91CC463DD070670
:101470002286A94526856120FD576308F502294586
:1014800035A0971700009387A71F6314F4008044CA
:10149000C9B7971700009387A71AE31CF4FAC04452
:1014A0004DBFA2852685112A55D97D55F24062444B
:1014B000D2444249B249224A056182801CC40509CE
:1014C00063D70700184C63CAE700638845011C40D6
:1014D0001387170018C08CA361B7228626850520C4
:1014E000E31035F9D9B71C401387170018C02947F6
:1014F00098A371B79387C181AA85884315B7011155
:1015000022CC26CA4AC806CE4EC6AA842E89328468
:1015100001C51C4D91E3ED269717000093874714F2
:101520006317F406C0401C4C1CC45E24A18BC1C3CD
:101530001C48B5CF1C4808409379F90F1379F90F6F
:101540001D8D5C486346F500A2852685692C25E53E
:101550001C440505FD171CC41C401387170018C048
:10156000238037015C486388A7005E24858B81CB8C
:10157000A9476316F900A2852685B5240DEDF24032
:1015800062444A85D2444249B24905618280971734
:1015900000009387E70E6314F400804469B797173F
:1015A00000009387E709E310F4F8C044ADBFA285BB
:1015B0002685212041D17D59D9B741119387C18119
:1015C00026C2844322C44AC006C62A892E8489C4FE
:1015D0009C4C99E326852D26971700009387470892
:1015E000631BF402C0400317C40093170701C183B3
:1015F00093F68700ADEA93F6070195EEA547232001
:10160000F900136707045AA47D55B240224492445E
:10161000024941018280971700009387670663148F
:10162000F4008044C9B79717000093876701E31C53
:10163000F4FAC0444DBF918B9DC34C5889C99307A0
:1016400044046384F5004A853123232A04025E247E
:101650002322040093F7B7FD5EA41C481CC05E243F
:1016600093E787005EA41C4899EB5E2413070020D3
:1016700093F707286385E700A2854A85A1215E24A8
:1016800013F717001DC35C4823240400B307F04080
:101690001CCC1C480145B5FB8317C40013F7070891
:1016A0002DD793E707045EA485B7898B014791E3A3
:1016B000584818C4F9BFDE25011122CC26CA06CE2F
:1016C0004AC84EC613F78700AA842E8479EBD84106
:1016D000634DE000B841634AE0000145F2406244D6
:1016E000D2444249B2490561828058547DD703A94A
:1016F00004009396370123A0040063DB06067048BC
:101700005E24918B99C75C401D8E5C5899C33C4008
:101710001D8E5C540C50814626858297FD575A24B5
:10172000631DF5009440F54763E8D706B7074020EE
:101730008507B3D7D700858BA5C31C482322040097
:101740001CC09317370163D80700FD576314F500D9
:101750009C4091E368C84C5823A02401BDDD930749
:1017600044046384F5002685F526232A0402B5B7D0
:101770000C500146854626850297FD572A86E311BF
:10178000F5F89C40B5DF75476385E70059476393DB
:10179000E70423A0240191B7136707045AA47D55D9
:1017A00035BF83A90501E38A09F203A905008D8BE2
:1017B00023A0350133093941014791E3D84918C4C1
:1017C000E35D20F11C540C50CA864E862685829714
:1017D0006347A0005E2493E707045EA4C9B7AA99F3
:1017E0003309A940F1BF9C49B9CF011122CC06CEE3
:1017F0002A8411C51C4D81E72EC61922B2459717C0
:1018000000009387E7E5639BF5004C408397C50094
:1018100095C722856244F240056171BD97170000AB
:10182000938707E66394F5000C44CDB79717000043
:10183000938707E1E39CF5FC4C44C9BFF240624446
:1018400001450561828001458280411122C406C69E
:101850002A844EA572A523200500232205002324F7
:1018600005002322050623280500232A0500232C32
:101870000500214681451305C505EFE07F8E9717CA
:101880000000938767B15CD097170000938787B3F8
:101890001CD497170000938767B75CD49717000094
:1018A0009387C7B900D01CD8B2402244410182803E
:1018B00097050000938565F3A9A2411126C213067E
:1018C00080069384F5FFB384C4024AC02E8922C4E3
:1018D00006C6938544071D262A8401CD23200500D2
:1018E00023222501310508C4138684068145EFE0D3
:1018F0003F872285B24022449244024941018280BE
:101900001C4DADE3411106C622C497070000938722
:1019100067FA1CD5938701829C4323240504232660
:101920000504232805046314F50085471CCD2A848B
:101930001D2848C02285052808C422852D2048C4BA
:10194000484001469145113708440546A545F53DF7
:1019500048440946C945D53D85471CCCB240224480
:1019600041018280828041119387018226C2844393
:101970004AC006C69C4C22C42A8999E32685493769
:10198000938484048044DC40FD1763D607009C40A8
:10199000B9CF8440C5BF0317C40039E7C1778507B5
:1019A000232204062320040023220400232404000D
:1019B0005CC423280400232A0400232C04002146AD
:1019C00081451305C405EFE0AFF9232A0402232C57
:1019D000040223240404232604042285B240224462
:1019E00092440249410182801304840671BF9145EB
:1019F0004A85E13588C051FDB1472320F9000144F3
:101A0000E9BF797122D44AD052CC56CA5AC85EC6B0
:101A100006D626D24ECE2A8AAE8A13048504014900
:101A2000054BFD5B09ECB25022544A859254025991
:101A3000F249624AD24A424BB24B45618280044429
:101A400083294400FD1963D409000040E1BFDE246E
:101A5000637BFB008397E40063877701A68552854B
:101A6000829A3369A90093848406E9BF1971A6DAC2
:101A7000AE848395E500A2DC86DE328463DB05005C
:101A8000DE2423A0060093F7070885E793070040AC
:101A90001DA0300836C6EF00F01FB246E34205FE37
:101AA0007247BD67F98F7977BA9793B717009CC2D1
:101AB000F1BF930700041CC0F6506654D65401458C
:101AC00009618280DE25011122CC06CE26CA4AC8D1
:101AD000898B2E8489CF930774041CC01CC885474A
:101AE0005CC8F2406244D24442490561828074007D
:101AF0003000AA84A53FA2452A892685012219E93A
:101B00008317C40013F7072069FFF19B93E72700B1
:101B10005EA4D1B7970700009387C7D99CD45E24F1
:101B200008C008C893E707085EA4A2475CC8B2478C
:101B300081CF8315E4002685EF00701811C55E245F
:101B4000F19B93E717005EA45E243369F900231626
:101B5000240141BFDDC183A7C5FF411122C406C6D0
:101B600026C21384C5FF63D307003E94AA84EF0006
:101B7000D01B9387C1859C4381EF2322040023AEB1
:101B800081842244B2402685924441016F00101A9C
:101B9000637EF40014403307D4006396E700984353
:101BA000DC43369718C05CC0D9BFBA87D84319C385
:101BB000E37DE4FE94433386D700631F8600104024
:101BC000B29694C33386D700E31DC7FA1043584337
:101BD000B29694C3D8C375B76375C400B1479CC0AF
:101BE0004DB71040B306C4006316D70014435843E2
:101BF000B29614C058C0C0C369B78280011126CA0A
:101C000093843500F19806CE22CC4AC84EC6A10472
:101C1000B14763F3F404B14463E2B4042A89EF00EA
:101C2000D0109387C18598433A8439E09387018621
:101C30009C4391E781454A850D2F23A0A186A68567
:101C40004A852527FD5963193507B1472320F90037
:101C50004A85EF00B00D29A0E3D004FCB1471CC1B8
:101C60000145F2406244D2444249B2490561828052
:101C70001C40858F63CF0702AD4663F6F6001CC09B
:101C80003E9404C031A05C406313870223AEF1840C
:101C90004A85EF00B0091305B40093074400619929
:101CA0003307F5405DDF3A94898F1CC05DBF5CC38C
:101CB000C5B72287404095BF130435007198E302F1
:101CC00085FCB305A4404A854D25E31C35FBB5BF13
:101CD0001C46FD171CC663DA0700184E63C5E700F3
:101CE000A9476394F5006FF09F811C422E851387EE
:101CF000170018C28CA38280011122CC26CA4AC8C0
:101D00004EC652C406CE2A89AE893284B304D600A8
:101D10007D5A63149400014501A80C204E864A8523
:101D2000453F0504E31745FFF2406244D24442496F
:101D3000B249224A05618280357122CD26CB4AC93B
:101D40004EC706CF52C556C35AC1DEDEE2DCE6DA24
:101D5000AA89AE843289368409C51C4D99E3EFF017
:101D60003FBA971700009387A78F6397F40C83A45B
:101D70004900DE24A18BFDC39C48EDC393070002FC
:101D8000A304F1029307000302D22305F10222C645
:101D9000930B5002971A0000938A8A90054C294BA6
:101DA0004A841C2099C3639E770DB30C2441638D34
:101DB0000C00E6864A86A6854E853D3FFD57630F9B
:101DC000F51C9256E69636D21C206389071CFD57F7
:101DD0001309140002C802CE3ECA02CCA3090104B2
:101DE00082D483450900154656852527130419001A
:101DF000C24751E913F7070109C713070002A309F6
:101E0000E10413F7870009C71307B002A309E1042F
:101E1000834609001307A002638FE606F2474A844F
:101E200081462546182093051400130707FD6377A4
:101E3000E60AB5CA3ECE85A8971700009387478467
:101E40006395F40083A489002DB79707000093875A
:101E5000277FE390F4F283A4C90021BFA6854E85B5
:101E6000EFF0AFF501DD7D55FA406A44DA444A49A6
:101E7000BA492A4A9A4A0A4BF65B665CD65C0D61FF
:101E80008280050439BF330555413315AC00C98F35
:101E90003EC82289B9B7324793064700184336C671
:101EA000634707023ACE18209307E002631DF70448
:101EB00018309307A002631BF702B2470904138787
:101EC00047009C433AC663C107023ECA2DA83307A8
:101ED000E04093E727003ACE3EC8F1B7B3876703E7
:101EE00085462E84BA973DBFFD57C5B7050402CA83
:101EF000814681472546182093051400130707FDE6
:101F00006374E606F9F20C200D4617050000130570
:101F1000A579012511CD970700009387E7781D8DDE
:101F200093070004B397A700424505045D8D2AC8B6
:101F30000C201946170500001305457713091400F6
:101F40002304B102F92335C197E7FFFF9387870B7D
:101F500095E74247B2471377071009CF91073EC66E
:101F60009257D2973ED22DBDB387670385462E8404
:101F7000BA9751B79D07E19BA107D5B7780097069F
:101F800000009386A6D726860C084E859700000091
:101F9000E7000000FD572A8AE314F5FCDE2493F7DE
:101FA0000704E39207EC1255C1B5780097060000CC
:101FB0009386C6D426860C084E85012AE1BF797126
:101FC00056CA9C49BA8A984522D426D24ECE52CCC3
:101FD00006D64AD05AC85EC6AA892E84B284368AEA
:101FE00063D3E700BA879CC00347340419C385074D
:101FF0009CC01C4093F7070281C79C4089079CC086
:102000000329040013796900631A0900130B940172
:10201000FD5B5C449840998F634CF9041C408346F7
:10202000340493F70702B336D000A5EB130634044B
:10203000D2854E85829AFD576303F5041C401146F4
:102040009840998B544481446397C700B384E64019
:1020500063D3040081441C4418486354F700998FEB
:10206000BE94014969047D5B63982405014509A874
:1020700085465A86D2854E85829A631E75017D55A6
:10208000B250225492540259F249624AD24A424B07
:10209000B24B456182800509ADBF3307D4001306FA
:1020A0000003A301C7040347540493871600A297B3
:1020B0008906A381E7049DBF85462286D2854E8589
:1020C000829AE30E65FB050945B7797122D426D2C1
:1020D0004AD04ECE06D652CC56CA5AC8B689942D8E
:1020E000930790063289AA842E8413863504638D63
:1020F000F60263E2D706930780056385F61863ED61
:10210000D700638D062093073004638EF60A930A86
:1021100024042301D404C9A0930730066385F60A7A
:1021200093074006E395F6FE1C40084393F6070824
:1021300093054500C5C61C410CC363D807001307AF
:10214000D002B307F040A301E40497060000938691
:102150006656294765A8930700076381F61663E56D
:10216000D7029307E0066388F6189307F006E3901A
:10217000F6FA0C401C4313F8050813854700630763
:10218000080608C39C4385A893075007E383F6FE1F
:10219000930780076388F61293073007E399F6F6F2
:1021A0001C43D04181459386470014C383AA07008E
:1021B0005685852601C53305554148C05C401CC87D
:1021C000A301040461A81C43930A240493864700D6
:1021D0009C4314C32301F4048547D5B793F6070441
:1021E0001C410CC3B9DAC207C18781BF93F505044E
:1021F00008C3C9D99E231307F0066386E60E970627
:1022000000009386264B2947A30104044C400CC4CC
:1022100063C5050008406D9908C099E3B28A89CD6D
:10222000B28AB3F5E702FD1AB6958C212380BA0075
:10223000B3D5E70263FFE70AA147631EF7001C401E
:10224000858B91CB58401C4863C7E7009307000378
:10225000A38FFAFEFD1A3306564110C84E87CA8670
:102260007000A2852685A13B7D5A631D450B7D55D7
:10227000B250225492540259F249624AD24A424B15
:1022800045618280A382D50497060000938686422A
:102290000C40084313F805081C411105630D0802A2
:1022A00008C313F7150001C793E505020CC04147A9
:1022B000A1FF0C4093F5F5FD0CC0B9B79C4193E725
:1022C00007029CC193078007A302F404970600004D
:1022D0009386863F75BF13F8050408C3E30308FC23
:1022E000C207C1837DBF970600009386A63C2147A5
:1022F00021BFAE873DB794411C43CC4913F8060873
:10230000138547006306080008C39C438CC339A0AB
:1023100008C393F606049C43F5DA8EA32328040031
:10232000B28A2DBF14485686CA8526858299E30055
:1023300045F51C40898B8DE7B2474844E35AF5F2D6
:102340003E853DB785465686CA8526858299E30037
:1023500065F3050A5C443247998FE345FAFEE9BF0D
:10236000014A930A94017D5BF5B7411122C42A8486
:102370002E8523A601AE06C6EFE01FF9FD576317B1
:10238000F5009387C1AE9C4391C31CC0B240224468
:1023900041018280411122C42E848395E50006C646
:1023A0007922634905007C48AA977CC8B240224440
:1023B000410182805E247D777D17F98F5EA4FDB791
:1023C000DE25011122CC26CA4AC84EC606CE93F796
:1023D0000710AA842E843289B68991C78395E500B7
:1023E0008946014609225E247D777D17F98F5EA418
:1023F0008315E4006244F240CE864A86B2494249DF
:102400002685D244056125A8411122C42E848395D6
:10241000E50006C6C928FD575A24631AF500FD7762
:10242000FD17F98F5EA4B240224441018280856786
:10243000D98F5EA468C8C5BF8395E50005A8411182
:1024400022C42A842E85B285368623A601AE06C60E
:10245000EFE0FFE7FD576317F5009387C1AE9C439C
:1024600091C31CC0B240224441018280411122C468
:102470002A842E8523A601AE06C6C520FD57631704
:10248000F5009387C1AE9C4391C31CC0B240224467
:1024900041018280411122C42A842E85B28523A65F
:1024A00001AE06C6C920FD576317F5009387C1AE7C
:1024B0009C4391C31CC0B24022444101828041111F
:1024C00022C42A842E8523A601AE06C65D20FD57B0
:1024D0006317F5009387C1AE9C4391C31CC0B24003
:1024E000224441018280411122C42A842E85B28572
:1024F000368623A601AE06C65920FD576317F500A0
:102500009387C1AE9C4391C31CC0B2402244410199
:10251000828093F5F50F2A966314C50001458280E9
:102520001C21E38EB7FE0505C5BF82808280411164
:1025300022C42A842E85B285368623A601AE06C61D
:10254000A920FD576317F5009387C1AE9C4391C343
:102550001CC0B2402244410182809307800523A61B
:10256000F1AE7D5582809307800523A6F1AE7D559F
:1025700082809307800523A6F1AE014582809307F0
:10258000800523A6F1AE7D5582809307800523A6A2
:10259000F1AE7D5582800000486172644661756CC1
:1025A000745F48616E646C65720D0000580700002E
:1025B00082060000D406000006070000D4060000D2
:1025C0001A06000088050000D40600005E06000020
:1025D00070060000520700005207000009022000A8
:1025E00001010080320904000002FF805500070548
:1025F00082024000000705020240000012011001A3
:10260000FF8055404843E0550001000000010000F4
:102610006A756D70204150500D000000537973743D
:10262000656D436C6B3A25640D0A00004368697060
:1026300049443A253038780D0A00000000000000B7
:10264000000000000000000000000000000000008A
:10265000000000000000000000000000000000007A
:10266000000000000000000000000000000000006A
:10267000000000000000000000000000000000005A
:10268000000000000000000000000000000000004A
:10269000000000000000000000000000232D302B8F
:1026A00020000000686C4C006566674546470000E6
:1026B0003031323334353637383941424344454678
:1026C000000000003031323334353637383961623A
:0826D000636465660000000070
:1026D80001020304050607080102030405060708AA
:1026E800010203040506070801020304050607089A
:1026F800000000005C2600007C2600003C2600004C
:1027080000000000000000000000000000000000C1
:1027180000000000000000000000000000000000B1
:1027280000000000000000000000000000000000A1
:102738000000000000000000000000000000000091
:102748000000000000000000000000000000000081
:102758000050000800500008006CDC024444444467
:10276800444444444444444470030020200000206E
:08277800200000200000000019
:00000001FF
