:040000006F00505AE3
:1000040000000000000000009A0B00009E0B00009E
:10001400000000004E0D0000000000000000000081
:10002400500D0000520D0000000000000000000010
:10003400540D000000000000560D000000000000F8
:10004400580D00005A0D00005C0D00000000000077
:100054005E0D0000600D0000620D0000640D0000E4
:10006400660D0000680D00006A0D00006C0D0000B4
:100074006E0D0000700D0000720D0000740D000084
:10008400760D0000780D00007A0D0000A20C00002F
:100094007E0D0000800D0000820D0000840D000024
:1000A400860D0000880D00008A0D00008C0D0000F4
:1000B4008E0D0000900D0000920D0000940D0000C4
:1000C400960D0000B20600009A0D00009C0D000081
:1000D4009E0D0000A00D0000A20D00000000000015
:1000E400000000000000000000000000000000000C
:0C00F40000000000000000000000000000
:10010000397101436EC619A0397141536AC866CA74
:1001100062CC5ECE19A0397101535AD056D252D456
:100120004ED64AD826DA22DC06DE330161408282CE
:1001300041114AC026C222C406C68282B24D410184
:10014000024D924C224CB24B4101024B924A224A40
:10015000B2494101024992442244B24041018280A5
:100160003D432A876373C3029377F700BDEFADE584
:10017000937606FF3D8ABA960CC34CC30CC74CC796
:100180004107E36BD7FE11E28280B306C3408A06C3
:100190009702000096966780A6002307B700A30683
:1001A000B7002306B700A305B7002305B700A304D3
:1001B000B7002304B700A303B7002303B700A302CB
:1001C000B7002302B700A301B7002301B700A300C3
:1001D000B7002300B700828093F5F50F9396850052
:1001E000D58D93960501D58D61B79396270097021B
:1001F000000096968682E78086FA9680C1171D8F4A
:100200003E96E374C3F8A5B7B77702409A23136705
:1002100027009AA39A2342074183759B4207418393
:100220009AA3962319672107558F9AA313874188AC
:10023000420741839AABD8231377E70FD8A313075C
:100240007007BAA3D82313672700D8A3B7E700E045
:100250003707020023A2E710828093878186982FB8
:100260001377F7FC98AFB77702401307200ADAA795
:10027000FAA78280EFF2DFEBCD37938781869A2F42
:10028000FD76ED16758F23A007009AAFE1B5EFF26A
:100290003FEA41118545414502C202C402C6EF0052
:1002A000D06085450545EF00506085453705020063
:1002B000EF00D05DB16705443EC24C009147371551
:1002C000014022C43EC6EF00F036370701401C4F04
:1002D000714693E707301CCFB777024021479AA3B6
:1002E000715798B78145138581869D3D138581841B
:1002F00011469385418000A10505EF10C0069D3F82
:10030000B7E700E03707020023A2E710F53D4101FF
:1003100091B5EFF2FFE183D7018837740240898BF2
:10032000638407105E240945C207C18393F7E7F190
:10033000C207C1835EA45E2493E707045EA4EF00B6
:10034000B0704A247E2493741500C207C18393F7CA
:10035000E7F1C207C1837EA47E24094593E7070421
:100360007EA4EF00706E371701407E241847858BFE
:100370009316170163D4060093E404043717014071
:1003800018479316070163D4060093E707043777ED
:1003900002405627898A99CA1A2313F51400118B33
:1003A00009C7858B639C071401456DB31623918A99
:1003B0009DCE93F70704EDFB7E27C207C183CD9B3B
:1003C000C207C1837EA7A1477EA7B7170140884710
:1003D000A1677D8D7E27133515000605C207C183F1
:1003E000CD9BC207C1837EA791477EA77DBF13F532
:1003F00004045DF95E27C207C183CD9BC207C18398
:100400005EA7A1475EA7B717014088475E273981DD
:10041000C207C183CD9BC207C1835EA713451500E8
:10042000914705895EA751B75E240945C207C1837C
:1004300093F7E7F1C207C1835EA45E2493E7070444
:100440005EA4EF0070605E245A24094513F917007A
:10045000420741831377E7F1420741835AA45E24A0
:1004600093E7070A5EA4EF00305E5E24858B99C394
:1004700013698900B71701409C471397170163540C
:10048000070013690904B7740240FA2409454207BA
:1004900041831377E7F142074183FAA4FE2493E7EF
:1004A0000704FEA4EF00505AE224FA240945058807
:1004B000420741831377E7F142074183FAA4FE2400
:1004C00093E7070AFEA4EF003058FE24858B99C3FA
:1004D00013648400B71701409C47139707016354C6
:1004E000070013640404B7770240DE27898B89CBA9
:1004F000058813751900E30A04EA21E5094575B575
:100500009377890421470145639BE70093770404AF
:10051000054591E7137594007D1513351500137487
:100520008404A147E313F4E8E31005E81377990086
:1005300085476313F700094593770904E38707E6C6
:1005400075BF05459DB5EFF2BFBEE1338547AA856E
:1005500037770240631BF5021E23C207C183ED9B60
:10056000C207C183938681861EA39E2E1384818633
:1005700013F727001DCB91EDB82611460507137719
:10058000F70F636AE60038A4F1B61E2393E747002D
:10059000D1BF0147CDBF13F7D7FF238506009AAE21
:1005A000918BFDF385479CC2C5B789C93824914614
:1005B00005071377F70F63E5E600BA852CA4E9B7C2
:1005C00093E727001EAC23050400918BD5FF3777F6
:1005D00002405E27898B81E77E27898B89CB37256F
:1005E00000008947130585611CC0EF00F0622317E6
:1005F000040059BFB77702409A23118B51CFFA27D5
:1006000013670701FAA7B77702401307F004C20582
:10061000BAA3C1818EAB4206D4B34182F2A3D823E0
:1006200013671700D8A39837A3840700D82313674C
:100630002700D8A32DC1983762076187E35D07FEC5
:1006400098371367070898B79A23118B39CBFA2785
:10065000420741833D9B42074183FAA7B777024097
:100660009A23136727009AA39A2342074183759B15
:10067000420741839AA3D8231377E70FD8A31387A0
:100680004188420741839AAB13077007BAA3D82366
:1006900013672700D8A38280DA2713670701DAA738
:1006A0009DB7DA27420741833D9B42074183DAA782
:1006B00075B7B77702409837411122C61377070202
:1006C00025C7983785461367070298B798370D8B6B
:1006D000631CD704B62715466378D604BE2799460F
:1006E000138441886396F6001C20FD8B638EE7021D
:1006F0007945EF007035938601839307100403A7B3
:1007000001889CA21C301583058BB98BD98F9CB2B4
:10071000377702401E23A1660946D58F1EA3814666
:10072000938501830145F935B77702409837620711
:10073000618763500704DA27B70602004207418346
:100740003D9B42074183DAA7FA27420741833D9B3D
:1007500042074183FAA737E700E02322D71813871F
:100760008186162F93E6160016AF98371367070891
:1007700098B7B777024098371377070401CF9837B7
:100780001367070498B7D13C372500001305C565EA
:10079000EF00D0593244410173002030EFF2DF9670
:1007A0001387818A143393D725009207D58F1CB302
:1007B000814793F6F70F05076398D5068905114918
:1007C00093F4F50F377A0240994A7D191379F90F9E
:1007D00063080904814626869385818A0545193D6B
:1007E0001304A00F854B7D141374F40F79DC834739
:1007F0009A0093F707029DCF83479A0093E7070279
:10080000A304FA008357AA006396FA0283C74188BB
:10081000FD8B63917703938781869827090798A7B3
:10082000E5321335190029BAB306F500942285077D
:1008300014B341B70D45EF00302175B7138781869A
:100840001A2F2384B18A137687009387818A93862F
:10085000818601C693E505028CA303C807001376C1
:1008600007049365080419C29365080894268CA3AD
:10087000B98AA382D188418B09C7983313671700BF
:1008800098B309C59833136707F898B3828093F734
:10089000350091EBF146854763E8B600EFF25F89DA
:1008A000F53D6FF03F8B85473E858280EFF2BF8636
:1008B0009379D50F6395090883C74188938681860C
:1008C0009A2E93F7070C938707F893B717001377BF
:1008D000F7FB9A07D98F9EAE0947938481861384CC
:1008E0004188138961886319E500114693859184D5
:1008F00013856188EF003027894501458137C94755
:1009000038205CB03C309316270019838D8BD58F2F
:1009100093F7F70F3CB08A07B18BD98F91454A8581
:100920005CA0AD3D994711C1FD479CC09E2C056759
:1009300023970400D98F9EAC4E856FF01F818549A7
:10094000E5BFEFF2EFFE938741889C33138841881F
:10095000014713D547001D8993854188130E000C6C
:100960001373F70FBA8613162700637AA300834820
:1009700058000507110893F8080CE393C8FF130704
:10098000E003D8B193F7F7F813974600D98F138592
:1009900081849CB12300650089050505EF00B01C2A
:1009A0006FF04FFBEFF2CFF813878186362B83C7AA
:1009B000318313848186BE9636AB1843A546630EF9
:1009C000D70863EBE60489466305D70699466306B4
:1009D000D7088547631AF700372500001305C5625D
:1009E000EF00D034EFF01F891E2C858B6382070E39
:1009F00083C74188230B04004547FD8BFD1793F700
:100A0000F70F938441886363F71809678A07130710
:100A1000075DBA979C438287FD476301F7069307FA
:100A200000026308F706A947E310F7FC232004003F
:100A300065BF7A24BA97C207C1837EA41307703EAC
:100A4000E374F7FA5C381547850793F7F70F5CB83E
:100A5000E37AF7F8A30A0400D1BF7A24BA97C20751
:100A6000C1837EA41307301FE370F7F81E2CED9BA3
:100A70001EACFD471CC023170400BDB7B54501459A
:100A8000753B81450145193B3335A000160508C06B
:100A9000DDB71E2C9306900A014693E74700814577
:100AA00005451EAC813EEFF02FF623200400E1B790
:100AB0001545EF00C07C1E2CED9B1EAC5935014541
:100AC000F533EFF06FF41E2C23190400F99B1EACD4
:100AD0006FF04FE8A5471CC023170400DDB737258A
:100AE000000013058563EF007024A9471CC0D1BF27
:100AF0000545EF00C0789145014589333705002051
:100B000091451305050A61336DBF0545EF00207758
:100B10008D450145253381450145F5B70545EF0074
:100B2000007685450545193B37050020F14513053D
:100B30000500D1BF0545EF00807489450545FD39A5
:100B4000A14513858180C1B70545EF0040739145EC
:100B5000C9B7BC2093F7070CADF70545EF0020722D
:100B6000BD450145E139BC301A2C914593F7070684
:100B7000B337F0009E071377F7F7D98F1EACBC2070
:100B80001385240093E707F8BCA0B5BF3725000004
:100B900013054564EF0090192DB77300203001A0B4
:100BA000EFF20FD9AA84056501112E841305058083
:100BB0008545E529E082373401404C08130504C01F
:100BC000E484231D0100231B0100230E0100ED29F5
:100BD0008545130504C06923930730027C868D4741
:100BE0005C87680085473EC8C1260546130504C0DA
:100BF000854591238545130504C0152305616FF0D4
:100C00006FD5EFF24FD10945692E1922192D716563
:100C100013050520452583A501813725000013050F
:100C2000C566EF00607F1124AA85372500001305F3
:100C3000C567EF00607E372500001305C568EF002B
:100C4000F00EEFF0CFE49305F0021305703EB734D9
:100C50000140B937938404C013848186914A0146C8
:100C600085452685C92903C7418383C72183054656
:100C70008545B307F7402685A389F1822389E18260
:100C80005D291C3403C73183BA9793F7F70F63E5E7
:100C9000FA001CB4013BE1B7A3040400EFF0BF8AE3
:100CA000D5BF411122C6373401408545130504C024
:100CB000612911C99387418398238545130504C091
:100CC000050798A371293244410173002030B717FA
:100CD00002409843B70600F99386F6F513671700AC
:100CE00098C3D84313670705D8C3D843758FD8C3B3
:100CF000372702401443F19A14C3144393E62600A5
:100D000014C3D8431377F7F0D8C3D843D8C382802D
:100D1000B7160240DC42918313F7F700B7070020B3
:100D20009387C701BA979C23D4423777DC0293F7A5
:100D3000F70F130707C093F606083356F70099E23A
:100D40003356F70223A8C180828001A001A001A030
:100D500001A001A001A001A001A001A001A001A08B
:100D600001A001A001A001A001A001A001A001A07B
:100D700001A001A001A001A001A001A001A001A06B
:100D800001A001A001A001A001A001A001A001A05B
:100D900001A001A001A001A001A001A001A001A04B
:100DA00001A001A0970100209381C1AF174100204D
:100DB00013014125172500001305459897F5FF1FDE
:100DC000938545241386018363FAC50083220500B9
:100DD00023A0550011059105E3EAC5FE13850183A3
:100DE0009385018D6377B500232005001105E36D20
:100DF000B5FEFD42739002BC8D4273904280930217
:100E0000800873A0023097F2FFFF9382E21F93E203
:100E1000320073905230EFF09FEB97020000938204
:100E200082DE7390123473002030B7F7FF1F03A5E2
:100E3000477082809845937707011378F70081C740
:100E4000DC413368F8009441814713F6F60F39C24C
:100E50001C410146854E3D4F930F80029302800452
:100E6000214EB398CE00B3F516016391B802131367
:100E70002600B3156F0093C5F5FFED8F331368009F
:100E8000B367F3006317F70D232A15010506E31A6C
:100E9000C6FD1CC14166130606F0758E3DC23716AD
:100EA000014093050680631BB50A83A74181A145D4
:100EB000854E3D4F930F800293028004414E339341
:100EC000BE0033F666006312C302139625000116B6
:100ED000B318CF0093C8F8FFB3F7F8003316C80073
:100EE000D18F6319F709232A65008505E399C5FDAC
:100EF000371601405CC1930506806312B50823AA2A
:100F0000F180C16763E6F604504D8147054E3D4FC1
:100F1000930F800293028004A14E93850701B315BD
:100F2000BE00B3F8B60063911503939827003313FE
:100F30001F011343F3FF3376C300B318180133E6E0
:100F4000C800631AF7054CC98507E398D7FD50CD53
:100F50008280E31D57F2232815010DBF930506C0BB
:100F60006315B50083A7818199B7E312C5F483A700
:100F7000C18135BFE31B57F623286500BDB7930534
:100F800006C06315B50023ACF180A5BFE31BC5F611
:100F900023AEF180BDB7E31957FAB315FE000CD1AB
:100FA00065B723ACA1828280938781839443182103
:100FB00081E63C21920721A894430546639FC6021F
:100FC0003C21103192076314D60093E707F8B7E687
:100FD00000E093F7F70FBA962380F64085469357C3
:100FE00057003397E6005441A5C2938707048A0748
:100FF000B7E600E0B69798C382808C438946639138
:10100000D50214313C216365D6008A06B6975DB7D8
:101010009386E6038A06B69793F7F70F920775B79C
:1010200090438D46631CD60014313C216364D60086
:101030008606E9BF9386C6078606F1BF94439147AB
:10104000E39EF6F81C31BDB7938707064DB7B77717
:10105000DC02938707C01CC1371602405842118337
:101060009376F700370700201307C702369714233B
:10107000504293F6F60F1376060833D7D70019E2DD
:1010800033D7D70258C118C558C5828099C53717BC
:1010900002405C4B5D8D48CB8280B7170240D84B35
:1010A0001345F5FF798DC8CB828099C5371702406B
:1010B0001C4F5D8D08CF8280B7170240984F1345B3
:1010C000F5FF798D88CF82801E21373701401307C5
:1010D00007C0C207C1836306E500370700406316F7
:1010E000E500BA2193F7F7F8D98FFA2193F7F7CFF4
:1010F000C207C183D98F1EA1DE215EB59E211EB518
:10110000B7370140938707C06306F500B707004073
:101110006314F5009C251EB985475EA982801E21B7
:1011200089C593E717001EA18280C207C183F99B7E
:10113000C207C183CDBF5E2501C6DD8D4EA582806D
:1011400093C5F5FFFD8DDDBF1E294A25ED8F4205B4
:10115000418189C76D8D3335A00082800145828031
:1011600093C5F5FFC205C1810EA98280EFE25FFC45
:101170001629F577FD17F58FF621DA250111D58FA0
:101180001EA95625FD779387379FF58FD6212A8490
:101190002EC6D58F9625D58FB625D58F5EA55E290F
:1011A000C207C18393F7F7CFD98F5EA908084535E9
:1011B000B747014093870780B245631EF402F247A8
:1011C0006547B387E7029841930640060A07B3D7FD
:1011D000E70233D7D702B3F7D702120792079387F4
:1011E0002703B3D7D702BD8BD98FC207C1831EA4F3
:1011F00005616FE03FF6E247E1B791C55E250967FB
:10120000D98F5EA582805A25F977FD17F98FD5BF52
:1012100093F5F51F4EA182800A216D8D3335A00014
:10122000828083A7018137177A0013070720B3D77D
:10123000E70293F7F70F238FF1821307803EB387FE
:10124000E702239EF1828280B7F700E0D84381460F
:10125000799BD8C303C7E1833306A70290CBD4CBD5
:1012600098431367070198C398431367170298C3FD
:10127000D843058B75DF9843799B98C38280B7F775
:1012800000E0D8438146799BD8C303D7C183330696
:10129000A70290CBD4CB98431367070198C3984318
:1012A0001367170298C3D843058B75DF9843799B62
:1012B00098C38280EFE2DFE72A841165011185453A
:1012C0002105E533930700403EC2371501408547AD
:1012D0003EC44C00E147130505C03EC6A13E22C8EE
:1012E00037440140B70708000C08130504803ECCC2
:1012F00002CA231E01009D3D854513050480F53D6E
:1013000005616FE03FE5EFE21FE1B7440140AE89C0
:101310003289014493840480634524014A856FE047
:10132000DFE2930500042685C53D65DDB3878900AE
:101330008385070026850504C205C181D13DE9BF2B
:10134000138701821C439386018D3E95636BD50004
:10135000B75600209386068063E5A60008C33E8545
:101360008280FD57EDBFB3C7A5008D8B3307C50045
:1013700081E78D4763EDC700AA87637EE508942166
:1013800085078505A38FD7FEE3EBE7FE8280937682
:101390003500AA8789CA942185078505A38FD7FEC2
:1013A00093F63700C5BF9376C7FF138606FE63F03A
:1013B000C70683A3050083A2450083AF850003AF62
:1013C000C50083AE050103AE450103A3850183A8D3
:1013D000C5019385450223A0770003A8C5FF23A27A
:1013E000570023A4F70123A6E70123A8D70123AAC6
:1013F000C70123AC670023AE17019387470223AED2
:1014000007FF75B790419107910523AEC7FEE3EB47
:10141000D7FEE3E6E7F6828039713EDA2ED232D487
:1014200036D63AD842DC46DE9387418222CC8043CE
:1014300026CA06CEAA8409C41C4C99E32285ED294C
:101440000C4454102686228536C6EF007012F240F6
:101450006244D24421618280011126CA4AC806CE64
:1014600022CC4EC652C4AA842E8901C51C4D91E3DC
:10147000E1219C4C804499E326857D299717000043
:1014800093870724631BF402C0405E24A18BB1C77D
:101490001C48A1C7FD59294A1C4483450900FD1772
:1014A000B1E91CC463DD07062286A94526856120B3
:1014B000FD576308F502294535A09717000093876B
:1014C00027226314F4008044C9B79717000093875C
:1014D000271DE31CF4FAC0444DBFA2852685112ABE
:1014E00055D97D55F2406244D2444249B249224A1C
:1014F000056182801CC4050963D70700184C63CAC4
:10150000E700638845011C401387170018C08CA3AF
:1015100061B7228626850520E31035F9D9B71C402E
:101520001387170018C0294798A371B79387418282
:10153000AA85884315B7011122CC26CA4AC806CE0F
:101540004EC6AA842E89328401C51C4D91E3ED2636
:10155000971700009387C7166317F406C0401C4C0A
:101560001CC45E24A18BC1C31C48B5CF1C480840D5
:101570009379F90F1379F90F1D8D5C486346F500D7
:10158000A2852685692C25E51C440505FD171CC48C
:101590001C401387170018C0238037015C486388FC
:1015A000A7005E24858B81CBA9476316F900A2852D
:1015B0002685B5240DEDF24062444A85D244424965
:1015C000B249056182809717000093876711631401
:1015D000F400804469B7971700009387670CE31005
:1015E000F4F8C044ADBFA2852685212041D17D59A4
:1015F000D9B741119387418226C2844322C44AC08D
:1016000006C62A892E8489C49C4C99E326852D26FA
:10161000971700009387C70A631BF402C0400317A3
:10162000C40093170701C18393F68700ADEA93F6D0
:10163000070195EEA5472320F900136707045AA474
:101640007D55B2402244924402494101828097175D
:1016500000009387E7086314F4008044C9B7971724
:1016600000009387E703E31CF4FAC0444DBF918B5D
:101670009DC34C5889C9930744046384F5004A8587
:101680003123232A04025E242322040093F7B7FDAA
:101690005EA41C481CC05E2493E787005EA41C481F
:1016A00099EB5E241307002093F707286385E70072
:1016B000A2854A85A1215E2413F717001DC35C484B
:1016C00023240400B307F0401CCC1C480145B5FBA3
:1016D0008317C40013F707082DD793E707045EA408
:1016E00085B7898B014791E3584818C4F9BFDE25B7
:1016F000011122CC26CA06CE4AC84EC613F787006F
:10170000AA842E8479EBD841634DE000B841634A46
:10171000E0000145F2406244D2444249B2490561C9
:10172000828058547DD703A904009396370123A0E3
:10173000040063DB060670485E24918B99C75C4009
:101740001D8E5C5899C33C401D8E5C540C508146E4
:1017500026858297FD575A24631DF5009440F5476E
:1017600063E8D706B70740208507B3D7D700858B36
:10177000A5C31C48232204001CC09317370163D85B
:101780000700FD576314F5009C4091E368C84C586E
:1017900023A02401BDDD930744046384F50026855E
:1017A000F526232A0402B5B70C5001468546268546
:1017B0000297FD572A86E311F5F89C40B5DF75477F
:1017C0006385E70059476393E70423A0240191B799
:1017D000136707045AA47D5535BF83A90501E38A21
:1017E00009F203A905008D8B23A035013309394186
:1017F000014791E3D84918C4E35D20F11C540C5013
:10180000CA864E86268582976347A0005E2493E7AA
:1018100007045EA4C9B7AA993309A940F1BF9C493E
:10182000B9CF011122CC06CE2A8411C51C4D81E707
:101830002EC61922B24597170000938767E8639B6D
:10184000F5004C408397C50095C722856244F2405D
:10185000056171BD97170000938787E86394F500D1
:101860000C44CDB797170000938787E3E39CF5FC02
:101870004C44C9BFF2406244014505618280014584
:101880008280411122C406C62A844EA572A5232057
:101890000500232205002324050023220506232812
:1018A0000500232A0500232C050021468145130548
:1018B000C505EFE0FF8A97170000938767B15CD0FA
:1018C00097170000938787B31CD49717000093875E
:1018D00067B75CD4971700009387C7B900D01CD8AE
:1018E000B24022444101828097050000938565F350
:1018F000A9A2411126C2130680069384F5FFB38482
:10190000C4024AC02E8922C406C6938544071D26F8
:101910002A8401CD2320050023222501310508C496
:10192000138684068145EFE0BF832285B2402244BE
:1019300092440249410182801C4DADE3411106C62B
:1019400022C497070000938767FA1CD5938781828A
:101950009C4323240504232605042328050463143B
:10196000F50085471CCD2A841D2848C022850528FE
:1019700008C422852D2048C44840014691451137AE
:1019800008440546A545F53D48440946C945D53DA9
:1019900085471CCCB24022444101828082804111A3
:1019A0009387818226C284434AC006C69C4C22C4C7
:1019B0002A8999E326854937938484048044DC404E
:1019C000FD1763D607009C40B9CF8440C5BF0317FD
:1019D000C40039E7C17785072322040623200400C9
:1019E00023220400232404005CC423280400232AA7
:1019F0000400232C0400214681451305C405EFE0B3
:101A00002FF6232A0402232C040223240404232671
:101A100004042285B240224492440249410182805A
:101A20001304840671BF91454A85E13588C051FD94
:101A3000B1472320F9000144E9BF797122D44AD08B
:101A400052CC56CA5AC85EC606D626D24ECE2A8A6E
:101A5000AE8A130485040149054BFD5B09ECB250C5
:101A600022544A8592540259F249624AD24A424B60
:101A7000B24B45618280044483294400FD1963D43C
:101A800009000040E1BFDE24637BFB008397E40094
:101A900063877701A6855285829A3369A90093846A
:101AA0008406E9BF1971A6DAAE848395E500A2DC4D
:101AB00086DE328463DB0500DE2423A0060093F774
:101AC000070885E7930700401DA0300836C6EF00E1
:101AD000F01FB246E34205FE7247BD67F98F797782
:101AE000BA9793B717009CC2F1BF930700041CC0BC
:101AF000F6506654D654014509618280DE250111F5
:101B000022CC06CE26CA4AC8898B2E8489CF930759
:101B100074041CC01CC885475CC8F2406244D244AF
:101B200042490561828074003000AA84A53FA24525
:101B30002A892685012219E98317C40013F7072093
:101B400069FFF19B93E727005EA4D1B797070000D8
:101B50009387C7D99CD45E2408C008C893E70708B8
:101B60005EA4A2475CC8B24781CF8315E4002685F6
:101B7000EF00701811C55E24F19B93E717005EA477
:101B80005E243369F9002316240141BFDDC183A718
:101B9000C5FF411122C406C626C21384C5FF63D304
:101BA00007003E94AA84EF00D01B938701849C43D6
:101BB00081EF2322040023A081842244B2402685A1
:101BC000924441016F00101A637EF4001440330701
:101BD000D4006396E7009843DC43369718C05CC096
:101BE000D9BFBA87D84319C3E37DE4FE9443338653
:101BF000D700631F86001040B29694C33386D70087
:101C0000E31DC7FA10435843B29694C3D8C375B7BF
:101C10006375C400B1479CC04DB71040B306C40003
:101C20006316D70014435843B29614C058C0C0C3BB
:101C300069B78280011126CA93843500F19806CED7
:101C400022CC4AC84EC6A104B14763F3F404B144A0
:101C500063E2B4042A89EF00D0109387018498438B
:101C60003A8439E0938741849C4391E781454A85D2
:101C70000D2F23A2A184A6854A852527FD59631926
:101C80003507B1472320F9004A85EF00B00D29A0A0
:101C9000E3D004FCB1471CC10145F2406244D24488
:101CA0004249B249056182801C40858F63CF07029B
:101CB000AD4663F6F6001CC03E9404C031A05C4003
:101CC0006313870223A0F1844A85EF00B00913054E
:101CD000B4009307440061993307F5405DDF3A94FF
:101CE000898F1CC05DBF5CC3C5B72287404095BFCC
:101CF000130435007198E30285FCB305A4404A85BE
:101D00004D25E31C35FBB5BF1C46FD171CC663DA29
:101D10000700184E63C5E700A9476394F5006FF00C
:101D20009F811C422E851387170018C28CA38280C6
:101D3000011122CC26CA4AC84EC652C406CE2A89F0
:101D4000AE893284B304D6007D5A631494000145F1
:101D500001A80C204E864A85453F0504E31745FF40
:101D6000F2406244D2444249B249224A056182802B
:101D7000357122CD26CB4AC94EC706CF52C556C3B0
:101D80005AC1DEDEE2DCE6DAAA89AE843289368424
:101D900009C51C4D99E3EFF03FBA971700009387F0
:101DA00027926397F40C83A44900DE24A18BFDC322
:101DB0009C48EDC393070002A304F10293070003BC
:101DC00002D22305F10222C6930B5002971A00009B
:101DD000938A0A93054C294B4A841C2099C3639E1D
:101DE000770DB30C2441638D0C00E6864A86A685E8
:101DF0004E853D3FFD57630FF51C9256E69636D251
:101E00001C206389071CFD571309140002C802CE69
:101E10003ECA02CCA309010482D4834509001546B9
:101E20005685252713041900C24751E913F7070106
:101E300009C713070002A309E10413F7870009C7C4
:101E40001307B002A309E104834609001307A002A7
:101E5000638FE606F2474A8481462546182093059B
:101E60001400130707FD6377E60AB5CA3ECE85A8BE
:101E7000971700009387C7866395F40083A48900B1
:101E80002DB7971700009387A781E390F4F283A4FE
:101E9000C90021BFA6854E85EFF0AFF501DD7D5568
:101EA000FA406A44DA444A49BA492A4A9A4A0A4BE9
:101EB000F65B665CD65C0D618280050439BF330534
:101EC00055413315AC00C98F3EC82289B9B7324796
:101ED00093064700184336C6634707023ACE1820D8
:101EE0009307E002631DF70418309307A002631BF9
:101EF000F702B2470904138747009C433AC663C1FF
:101F000007023ECA2DA83307E04093E727003ACEE8
:101F10003EC8F1B7B387670385462E84BA973DBFA5
:101F2000FD57C5B7050402CA8146814725461820DA
:101F300093051400130707FD6374E606F9F20C20FD
:101F40000D46170500001305257C012511CD9707C7
:101F500000009387677B1D8D93070004B397A7004C
:101F6000424505045D8D2AC80C201946170500005E
:101F70001305C579130914002304B102F92335C1EF
:101F800097E7FFFF9387070895E74247B247137724
:101F9000071009CF91073EC69257D2973ED22DBD6A
:101FA000B387670385462E84BA9751B79D07E19B97
:101FB000A107D5B77800970600009386A6D7268696
:101FC0000C084E8597000000E7000000FD572A8AA4
:101FD000E314F5FCDE2493F70704E39207EC1255B3
:101FE000C1B57800970600009386C6D426860C08F3
:101FF0004E85012AE1BF797156CA9C49BA8A984533
:1020000022D426D24ECE52CC06D64AD05AC85EC66C
:10201000AA892E84B284368A63D3E700BA879CC02B
:102020000347340419C385079CC01C4093F707027B
:1020300081C79C4089079CC003290400137969006B
:10204000631A0900130B9401FD5B5C449840998F5F
:10205000634CF9041C408346340493F70702B336FB
:10206000D000A5EB13063404D2854E85829AFD5725
:102070006303F5041C4011469840998B54448144F5
:102080006397C700B384E64063D3040081441C44D3
:1020900018486354F700998FBE94014969047D5B29
:1020A00063982405014509A885465A86D2854E8540
:1020B000829A631E75017D55B25022549254025982
:1020C000F249624AD24A424BB24B456182800509CD
:1020D000ADBF3307D40013060003A301C7040347B1
:1020E000540493871600A2978906A381E7049DBF35
:1020F00085462286D2854E85829AE30E65FB0509C8
:1021000045B7797122D426D24AD04ECE06D652CCCB
:1021100056CA5AC8B689942D930790063289AA8464
:102120002E8413863504638DF60263E2D706930787
:1021300080056385F61863EDD700638D062093074D
:102140003004638EF60A930A24042301D404C9A040
:10215000930730066385F60A93074006E395F6FE7B
:102160001C40084393F6070893054500C5C61C416B
:102170000CC363D807001307D002B307F040A301D4
:10218000E404970600009386E658294765A893075C
:1021900000076381F61663E5D7029307E0066388BC
:1021A000F6189307F006E390F6FA0C401C4313F878
:1021B0000508138547006307080608C39C4385A8E4
:1021C00093075007E383F6FE930780076388F612B0
:1021D00093073007E399F6F61C43D0418145938677
:1021E000470014C383AA07005685852601C5330519
:1021F000554148C05C401CC8A301040461A81C43AD
:10220000930A2404938647009C4314C32301F404D7
:102210008547D5B793F607041C410CC3B9DAC2074A
:10222000C18781BF93F5050408C3C9D99E2313074D
:10223000F0066386E60E970600009386A64D2947B2
:10224000A30104044C400CC463C5050008406D990B
:1022500008C099E3B28A89CDB28AB3F5E702FD1AC4
:10226000B6958C212380BA00B3D5E70263FFE70A55
:10227000A147631EF7001C40858B91CB58401C483A
:1022800063C7E70093070003A38FFAFEFD1A330626
:10229000564110C84E87CA867000A2852685A13B8C
:1022A0007D5A631D450B7D55B250225492540259FC
:1022B000F249624AD24A424B45618280A382D504E8
:1022C00097060000938606450C40084313F805085E
:1022D0001C411105630D080208C313F7150001C75F
:1022E00093E505020CC04147A1FF0C4093F5F5FDB5
:1022F0000CC0B9B79C4193E707029CC193078007C4
:10230000A302F404970600009386064275BF13F8F3
:10231000050408C3E30308FCC207C1837DBF970619
:1023200000009386263F214721BFAE873DB79441E9
:102330001C43CC4913F806081385470063060800C0
:1023400008C39C438CC339A008C393F606049C437E
:10235000F5DA8EA323280400B28A2DBF14485686CE
:10236000CA8526858299E30045F51C40898B8DE757
:10237000B2474844E35AF5F23E853DB78546568656
:10238000CA8526858299E30065F3050A5C443247D5
:10239000998FE345FAFEE9BF014A930A94017D5BF8
:1023A000F5B7411122C42A842E8523A6018C06C6C6
:1023B000EFE01FF9FD576317F5009387C18C9C432D
:1023C00091C31CC0B240224441018280411122C409
:1023D0002E848395E50006C67922634905007C4872
:1023E000AA977CC8B2402244410182805E247D7756
:1023F0007D17F98F5EA4FDB7DE25011122CC26CA18
:102400004AC84EC606CE93F70710AA842E84328996
:10241000B68991C78395E5008946014609225E2465
:102420007D777D17F98F5EA48315E4006244F24046
:10243000CE864A86B24942492685D244056125A8FE
:10244000411122C42E848395E50006C6C928FD5794
:102450005A24631AF500FD77FD17F98F5EA4B24088
:102460002244410182808567D98F5EA468C8C5BFB8
:102470008395E50005A8411122C42A842E85B285E2
:10248000368623A6018C06C6EFE0FFE7FD576317EB
:10249000F5009387C18C9C4391C31CC0B240224479
:1024A00041018280411122C42A842E8523A6018CF9
:1024B00006C6C520FD576317F5009387C18C9C4362
:1024C00091C31CC0B240224441018280411122C408
:1024D0002A842E85B28523A6018C06C6C920FD5705
:1024E0006317F5009387C18C9C4391C31CC0B24015
:1024F000224441018280411122C42A842E8523A6D0
:10250000018C06C65D20FD576317F5009387C18CCB
:102510009C4391C31CC0B2402244410182804111BE
:1025200022C42A842E85B285368623A6018C06C64F
:102530005920FD576317F5009387C18C9C4391C3C5
:102540001CC0B24022444101828093F5F50F2A96C7
:102550006314C500014582801C21E38EB7FE05058A
:10256000C5BF82808280411122C42A842E85B28513
:10257000368623A6018C06C6A920FD576317F500F1
:102580009387C18C9C4391C31CC0B240224441013B
:1025900082809307800523A6F18C7D558280930766
:1025A000800523A6F18C7D5582809307800523A6A4
:1025B000F18C014582809307800523A6F18C7D551F
:1025C00082809307800523A6F18C7D5582800000D0
:1025D000B00A00008C0B0000D40A00008C0B000035
:1025E0008C0B0000DE0A00008C0B0000F00A0000DB
:1025F0008C0B00008C0B0000480B0000C20A00008E
:102600000A0B00008C0B0000520B00008C0B00002A
:102610001C0B0000340B00004343256420537263FD
:1026200020436F6E6E6563740D0A00004469736326
:102630006F6E6E6563740D00537563636573730D20
:1026400000000000556E737570706F7274656420C1
:10265000436F6D6D616E640D0000000049465F526E
:10266000585F52455345540D000000005379737470
:10267000656D436C6B3A25640D0A00004368697010
:1026800049443A253038780D0A0000005044205360
:102690004E4B20544553540D000000000000000034
:1026A000000000000000000000000000000000002A
:1026B000000000000000000000000000000000001A
:1026C000000000000000000000000000000000000A
:1026D00000000000000000000000000000000000FA
:1026E00000000000000000000000000000000000EA
:1026F000000000000000000000000000232D302B2F
:1027000020000000686C4C00656667454647000085
:102710003031323334353637383941424344454617
:1027200000000000303132333435363738396162D9
:0827300063646566000000000F
:10273800188063000000000000000100000007038B
:102748000000000000000003001200000102030462
:102758000506070801020304050607080102030429
:102768000506070801020304050607080000000023
:10277800BC260000DC2600009C26000000000000AB
:102788000000000000000000000000000000000041
:102798000000000000000000000000000000000031
:1027A8000000000000000000000000000000000021
:1027B8000000000000000000000000000000000011
:1027C8000000000000000000000000000000000001
:1027D800649001362C91013E06801600000000002E
:1027E800006CDC0244444444444444444444444467
:1027F800700100203C0000203C0000200000000088
:00000001FF
