:040000006F10A03CA1
:1000040000000000000000001409000018090000AE
:100014000000000074130000000000000000000055
:1000240076130000781300000000000000000000B8
:100034007A130000000000007C13000000000000A0
:100044007E130000801300008213000000000000F3
:100054008413000086130000881300008A13000034
:100064008C1300008E130000901300009213000004
:100074009413000096130000981300009A130000D4
:100084009C1300009E130000A0130000A2130000A4
:10009400A4130000A6130000A8130000AA13000074
:1000A400AC130000AE130000B0130000B213000044
:1000B400B41300000E0B0000B8130000BA130000C4
:1000C400BC130000BE130000C0130000C2130000E4
:1000D400C4130000C61300001A0900000000000049
:1000E400000000000000000000000000000000000C
:0C00F40000000000000000000000000000
:10010000397101436EC619A0397141536AC866CA74
:1001100062CC5ECE19A0397101535AD056D252D456
:100120004ED64AD826DA22DC06DE330161408282CE
:1001300041114AC026C222C406C68282B24D410184
:10014000024D924C224CB24B4101024B924A224A40
:10015000B2494101024992442244B24041018280A5
:100160003D432A876373C3029377F700BDEFADE584
:10017000937606FF3D8ABA960CC34CC30CC74CC796
:100180004107E36BD7FE11E28280B306C3408A06C3
:100190009702000096966780A6002307B700A30683
:1001A000B7002306B700A305B7002305B700A304D3
:1001B000B7002304B700A303B7002303B700A302CB
:1001C000B7002302B700A301B7002301B700A300C3
:1001D000B7002300B700828093F5F50F9396850052
:1001E000D58D93960501D58D61B79396270097021B
:1001F000000096968682E78086FA9680C1171D8F4A
:100200003E96E374C3F8A5B7EFF29FF2854511451A
:10021000EF10E051854537050200EF10205385456A
:100220000945EF10A05285450545EF10604E014588
:1002300015B7EFF2FFEF37040040411113050440FA
:1002400002C202C423160100EF10E055B7070020D8
:1002500083A7070837470F0013070724B3D7E70220
:100260004C001305044023130100FD177C82930703
:1002700030063EC4EF102058130504408545EF10AA
:10028000805F0546130504408545EF10A05DB7E784
:1002900000E03707400023A2E7108545130504401E
:1002A000EF10C05A41017DB5EFF2FFE6371401406F
:1002B0007971AA8A2E8913050480914532C602D02D
:1002C00002D202D402D602CA02CC02CEEF10A03E65
:1002D0008544114AC1494C081305048052CA26CCF2
:1002E0004ECEEF106026374700408357C7404C087A
:1002F00013050480C207C183CD9BC207C1832316A7
:10030000F740A1473ECA930780043ECEEF10C023BA
:10031000E1474C08130504803ECE52CA26CCEF10AC
:10032000A022A1674C08130504803ECA26CC4ECEFD
:10033000EF10802156D02312010232468D676306EA
:10034000990089476318F90489672313F1028547E7
:100350006315F604930700602314F10285672312E6
:10036000F10237440040B1470C1013050440231537
:10037000F10223160102EF10005313050440930508
:100380000004EF10C05E854513050440EF10805A4D
:10039000456165BB231301025DBF89476315F60004
:1003A0009307004055BF2314010265BF13874145E1
:1003B000231007002311070023120700230307005F
:1003C000F94674B32314070023150700231607000A
:1003D000938741450147414693161700BE962397E0
:1003E00006000507E31AC7FE2387070223980702C2
:1003F00023990702238A0702239B0702238C070203
:10040000A38C070223A0018223A2018215C5238D9C
:100410000702130720FCA38DE7020547238EE7029E
:10042000A38E0702238F0702A38F07022147238091
:10043000E7047947A380E7048280EFF27FCF7971E8
:100440002A842E89B28481451306C0024800093BE4
:1004500031E43704024013050408EF100000B747E9
:100460000040938747403EC2C1473EC693070008FD
:100470003ECC4C008567130504084AC426C802CA4E
:1004800002CE02D002D23ED402D6EF10200785451C
:1004900013050408EF10000A45616DB937040240E6
:1004A0001305C406EF00707BB747004093874740B1
:1004B0003EC2930700083ECC930700023ED24C0098
:1004C00085671305C4064AC402C626C802CA02CEFE
:1004D00002D03ED402D6EF10600285451305C40653
:1004E00055BFEFF25FC33744004041112A89AE89FE
:1004F000328A1305044001469305000436C6B7044A
:100500000240EF1080441385C4068145EF1080023D
:10051000138504088145EF10E001B246D2854E856F
:1005200036865933014693854105014539370566BD
:10053000B7050020130606809385450D0545F53D5A
:1005400005469305000413050440EF1000404A855A
:10055000B13D4101DDBEEFF2BFBD9387414503C709
:10056000D70383C6C70383C5B70303C6A703C20661
:1005700062073697329703C6E70383C6F703A205DF
:10058000BA950145B93FB73702401387410523ACFF
:10059000E74003D7A742420741834D9B420741836F
:1005A0002395E74203D7A742420741832395E742B9
:1005B00055B6EFF25FB69387414583C7E7021384D0
:1005C000414593F7F70FF5C3B747004003D70740FE
:1005D000938607401377070461CB1307F0FB239042
:1005E000E74083D747410967C207C18393F7F7F70D
:1005F000C207C183DEAA23070402B7E700E023A2F3
:10060000E71823A2E718370702401E388326470859
:100610001238C207C206C183C1823387F6403297BF
:10062000420741831AB83A38BA97958FC207C183F7
:100630003EB81E38C207C18395E73E243D47860772
:10064000A297239707003E248507C207C1833EA4D3
:100650003E246374F700231504005E24FD17C207CF
:10066000C1835EA483479403054793F7F70F63980C
:10067000E7025A2463E5E702373702408357A7426F
:10068000C207C183CD9BC207C1832315F74283579D
:10069000A742C207C1832315F742A30C0402B7E7A0
:1006A00000E0096723A2E7104DB45E24C207C183AE
:1006B000E5DF1E3813894105C207C18395EF3E244B
:1006C000373500001305C5DF8607A297FE27814452
:1006D000C207C1831EB83E249A07C207C1833EB831
:1006E0000E38EF1020491E3863C0F406373500007D
:1006F000130585E0EF10E05BB74900401385094022
:1007000093050004EF10A026B704024013850408E7
:100710008145EF0030623E381385040885453E99D7
:10072000232625011E3893890940C207C1835CC175
:10073000EF00506083D7490193E70708239AF90037
:1007400085472307F4028DB73E38CA97A6978823BA
:100750008504EF10204641BFEFF29F9DB7E700E010
:10076000096723A2E71823A2E718B7070240B85B7E
:100770009387018298C31386418210429C4313845D
:1007800041456301F6049386018213874182104339
:100790009C4263F1C7141C439042918F9442C2075C
:1007A000C18314C35620056713070780BE96635B99
:1007B000D7124E2037350000130505DFEF10803BC0
:1007C00023030400B7E700E0096723A2E7105E20D7
:1007D000C207C183DDC38347440393F7F70F639ECA
:1007E000071046209307F003C204C18063E297100C
:1007F0007C20783063E1E7103A2085679387078093
:100800003387E740635797002620B3849740C2049C
:10081000C180A5C40967B7E700E023A2E71823A2B7
:10082000E7188547230AF402231B04022E20B7078A
:1008300000209387470DBE95854626860D45AD2C35
:100840005E201307F07F858FC207C1835EA03E2024
:10085000A697C207C1833EA03E206374F700231110
:100860000400930700046395F4008547230CF40209
:10087000B7E700E0096723A2E7108347840393F7F3
:10088000F70FB9C78347440393F7F70FB1E37E38F7
:1008900013077025637EF702B7E400E0096923A21D
:1008A000241923A224198547230AF402231B0402D6
:1008B0002E20B70700209387470D85460146BE9539
:1008C0000D45DD2A230A0402230C040223A224116D
:1008D0006FF05F888C421C43056613060680B29752
:1008E0008D8F6DBD5A20BA97C207C1835EA0C9BD66
:1008F0009304000411B7814401B77A38BD67938728
:10090000F7A5E3FCE7F6230A04029387C182A381DB
:100910000700A5B77300203001A0411122C637049B
:100920000040854513050440EF00B07529C1854599
:1009300013050440EF007076138741457C2385073B
:1009400093F7F70F7CA38346670383477703034638
:100950006703A207D58F8507C207C18393F6F70FF8
:10096000230BD702A18383467703A30BF7023244FC
:10097000410173002030EFF2AFFB85450545EF00E4
:10098000105B85450565EF00B0586FF0AFFCB737D9
:100990000240130700042386E74013078004A38660
:1009A000E7401387C14923A8E7401387C14D23AA15
:1009B000E7401387410523ACE740370700201307C2
:1009C000470D23AEE7402391074223950742239228
:1009D00007422396074209472391E7422393E742C0
:1009E0002397E7429387C18223800700A3800700F3
:1009F00023810700A381070023820700A382070049
:100A000023830700A38307008280EFF26FF2411176
:100A10008545414502C202C402C6EF005051B707E6
:100A200003003EC24C0093078004371501403EC6C8
:100A3000EF009031B7070140984F1367070898CF30
:100A4000984F1367C70098CF984F719B98CF41017B
:100A50006FF04FF0EFF2CFED21C1B73402407537A0
:100A6000238004402D3793079002A3810440238004
:100A7000F440FD572383F440930710F8A380F4401B
:100A80009D472381F4400967B7E700E013840440E1
:100A900023A2E7106FF00FEC994737340240230090
:100AA000F4402945EF001070B7E700E02300044050
:100AB000096723A2E718F9BFEFF28FE79307F5FF65
:100AC00093F7F70F194785446360F7041384C182D5
:100AD0002A941C20854493F7F70F9DE737050020E3
:100AE0001305450D3289EF00D07D373702402316BC
:100AF00027438357E742C207C183F19BC207C183E3
:100B00002317F74204A0814426856FF0AFE401115A
:100B100022CE3734024026CC4ACA4EC852C656C4EA
:100B20001304044078207C301377F70F9376270066
:100B30006380066493F7F70F13F70703930500022A
:100B40006305B70E930600036304D72663170718DF
:100B500013F7F703630F071C89476310F7183E3438
:100B600093C707083EB41387414510440C27143738
:100B700042064182A206CD8E8606BA969375F60F7E
:100B8000E8262182ECA6EC36F0B6102714370C27A5
:100B900093874145A206D18E8506C206C18213F60F
:100BA000F60F10A7A182103714B710271437A2062A
:100BB000D18E9A0613864105B29614CC14271837A5
:100BC0002207558FBD4663F9E60098272384070066
:100BD0009837A384070010CCD427D837D027220712
:100BE000558F0507420741839376F70FD4A72183DA
:100BF000D437D8B7D427D8372207558FB54663FEE8
:100C0000E60CB736024003D7A64293860640420759
:100C100041834D9B42074183BAB6BA3613678700BA
:100C2000BAB60547A38CE7024DA893F7F7039306DE
:100C30001002638CD70A930630026388D70C639E38
:100C4000E708938781839E2393848183C207C183AE
:100C500081E7930700083EB083C7A18393F7070697
:100C6000ADEF83C74183154793F7F70F638CE70414
:100C700019476394E7069E201307F003130400044A
:100C80006365F7008220420441801389018483292F
:100C900009002286CE851385C149EF0090629E200F
:100CA000A29923203901818FC207C1839EA0B73743
:100CB00002402390874203D727421347070423911A
:100CC000E74221A8373702408347374083C68182F5
:100CD00093F70708D58FA301F740B73702400947BC
:100CE0002383E7409387074045A17E3093C70704DD
:100CF0007EB07E30C207C183F19B93E727007EB0B0
:100D00009387C182A3800700C9BF7E3493C70704BD
:100D10007EB47E34C207C183F19B93E727007EB483
:100D20009387C182A381070093874145238A0702E5
:100D30006DB7184493F70704CDD383C7A1831384F9
:100D4000818393F70706B1CB2310040083C7418347
:100D50006395F5041387C149142393874145238D77
:100D6000D7021433A38DD7023423238ED702343312
:100D7000A38ED7025423238FD70254337823A38F13
:100D8000D7022380E7047947A380E704F833137779
:100D9000F70FA380E704EFF00FFC1E20C207C1830A
:100DA0008DFFB7370240239007421307000401BFAD
:100DB000930720043EB0930780083EB09386C14954
:100DC0009C221386A1831CA29C3203D86600138741
:100DD00041831CA383D82600938781832390070136
:100DE0001388C1832310180183D8460013886183B8
:100DF0002310180103480600138981839389A18376
:100E0000137808061386C1499387C183938661834B
:100E10006303080A83C709009384018493F70702D8
:100E2000C1C31C231307100293F7F70F6386E7066D
:100E3000636CF70401446384B7001304F00F835715
:100E400009001307F003130A00046367F700035A4D
:100E50000900420A135A0A0183AA04005286138524
:100E6000C149D685569AEF00D04523A04401930787
:100E7000F00F6314F41013073004B73702402391C6
:100E8000E7421307C00825BD130730021304F00F13
:100E9000E367F7FA014465B79387E1489CC0DDBF7B
:100EA00003C40900198013441400058833048040EA
:100EB0001374F40F69B71823AD451377F70FE3ECFC
:100EC000E5FA8D650A079385C5E02E9718430287DA
:100ED0009A2389462183938401846306D7020D46B1
:100EE000630EC70285476316F7048D671387C7EB48
:100EF00083C7C7EB98C0014403570900E3F1E7F447
:100F00002310F9002DBF0D67130787E73C3398C006
:100F10003823A207BA97C207C183F1BF9E230546B3
:100F200093F7F70F6381C70289CB6385D702638A82
:100F3000E70281471304F00FC1B71387818198C07E
:100F400083C781814DBF8D67138707ED98C083C725
:100F500007ED55B78D67138707EE98C083C707EE77
:100F600059BF8D67138787EF98C083C787EF61B735
:100F70009E2393F7F70F2384F18283C70900035759
:100F80000900E207E18763D5071C9307000463E6C5
:100F9000E70083570900C207C183035709001D8F6B
:100FA000420741832310E900373702402310F742FC
:100FB000930700042311F7420DB383C791821CA24B
:100FC000035709008547E3FAE7FA2310F90075B7DC
:100FD0009E2393F7F70FA384F18205472385E182CF
:100FE00069BF03C709007D8B11EF9E23054793F767
:100FF000F70FE394E7F89387B18298231377E70F0D
:1010000098A3A5BF03C7090009467D8BE315C7E672
:101010009E2393F7F70FE39007E69622B737024037
:101020001306100893F6F60F938707406386C608E9
:10103000130630086387C608E39FE6E2239507029C
:101040002DBF03C709007D8B05E79E23054793F756
:10105000F70FE392E7E28D6783C7F7E793F707029D
:10106000E38B07E09387B18298231367170049BF8A
:1010700003C6090009477D8AE31FE6DE9E2393F736
:10108000F70FE39A07DE9A22B7370240930610085B
:101090001377F70F93870740630DD7009306300847
:1010A000630ED700E319C7DCBA371367C700BAB7B6
:1010B000E9B5FA3313673700FAB3C1B5FA371367E6
:1010C0003700FAB75DBD23000600DDBD83C7090008
:1010D00023100600FD8B85E383C7B1820144858B15
:1010E00099C389471CA2035709008947E3F1E7D850
:1010F0002310F900ADBB83C5090089471304F00F25
:10110000FD89E392F5FE9A22B73702409306100854
:101110001377F70F93870740630ED70093063008C5
:101120006304D702E311B7FCBE373147B18B639B31
:10113000E70039A0FE330D4701448D8BE395E7FAB4
:1011400085471CA2014445B7FE370D478D8BC5B7B7
:101150004207B737024041839387074019E723903E
:10116000070213070004BAB38DBE13070008E5BFDA
:10117000937717009DC3A3010400EFF05F8105453D
:10118000EFF0CFA285477CA07244E2445249C249A5
:10119000324AA24A0561730020309377470085C721
:1011A00058309387B182118B11CB98231367270096
:1011B00098A39C23B737024011471DB69823137795
:1011C000D70F98A3C5BF78A0C1B7EFE2FFF3AA8AF3
:1011D000EF00D02E131905013D6A13590901814909
:1011E00013844145130AFAA5138BC18263140900C5
:1011F0006FE01FF58347440393F7F70F89CF034749
:10120000640383477403A207D98FE375FAFE230AA8
:101210000402A3010B0093070004CA8463F42701AE
:101220009304000437EC00E0896C23229C19854B61
:10123000230A740383476403C204230B0402C1809E
:10124000834774032686B3853A0185460D45A699E2
:10125000A30B0402B3049940EFF01F86C209C20435
:1012600023229C119307F00393D90901C18063F4F1
:101270002701230C7403268995BFEFE27FEB094514
:10128000B12171647D20D52D13050420EF00407835
:10129000B707002083A50708373500001305C5E30D
:1012A000EF00500D7522AA85373500001305C5E4FF
:1012B000EF00500CEFE05FF5EFE0BFF7814601462D
:1012C000930504200545EFF0CFA1EFF0CFEA0545E7
:1012D000EFF04FF80565130585BB01273735000092
:1012E0001305C5E5DD35EFF02FC7EFF08FACE5BF97
:1012F000B71702409843B70600F99386F6F51367CF
:10130000170098C3D84313670705D8C3D843758F10
:10131000D8C3372702401443F19A14C3144393E609
:10132000260014C3D8431377F7F0D8C3D843D8C3E3
:101330008280B7160240DC42918313F7F700B707AB
:10134000002093870700BA979C23D4423777DC02AA
:1013500093F7F70F130707C093F606083356F70005
:1013600099E23356F702B707002023A0C70882800E
:1013700001A001A001A001A001A001A001A001A065
:1013800001A001A001A001A001A001A001A001A055
:1013900001A001A001A001A001A001A001A001A045
:1013A00001A001A001A001A001A001A001A001A035
:1013B00001A001A001A001A001A001A001A001A025
:1013C00001A001A001A001A001A097F1FF1F93813E
:1013D000614B174100201301E1C2172500001305DE
:1013E00025BD97F5FF1F9385E5C11386018263FA3A
:1013F000C5008322050023A0550011059105E3EAED
:10140000C5FE13850182938501526377B5002320C1
:1014100005001105E36DB5FEFD42739002BC8D42DF
:10142000739042809302800873A0023097F2FFFF0E
:10143000938282BD93E2320073905230EFF05FEB03
:10144000970200009382A2E373901234730020305D
:10145000B7F7FF1F03A5477082801C4141677917CA
:10146000F98F1CC123200500232205002324050039
:10147000B707024023260500138787006317E5009E
:10148000D8431367F700D8C382801387C701631658
:10149000E500D8431367070FFDB7138707036318E9
:1014A000E500D8438566938606F0558FE9BF13871C
:1014B00047046315E500D843BD66C5BF138787059C
:1014C0006316E500D843B7060F00C5B71387C706F4
:1014D0006316E500D843B706F000C1BF13870708BD
:1014E0006316E500D843B706000FC1B71387470955
:1014F000E31CE5F8D843B70600F045BF1C4161770F
:101500003D0794517D8F9C45D58F9449D58FD44903
:10151000D58F944DD58FD44DD58FD451D58F94552B
:10152000D58FD98F1CC1DC455CC19C411CC5DC41F9
:101530005CC582801C4189C593E717001CC182806D
:1015400041677917F98FDDBF9845937707011378C5
:10155000F70081C7DC413368F8009441814713F6F6
:10156000F60F39C21C410146854E3D4F930F800254
:1015700093028004214EB398CE00B3F51601639117
:10158000B80213132600B3156F0093C5F5FFED8F56
:1015900033136800B367F3006317F70D232A1501AF
:1015A0000506E31AC6FD1CC14166130606F0758EDA
:1015B0003DC23716014093050680631BB50A83A719
:1015C0004180A145854E3D4F930F800293028004D8
:1015D000414E3393BE0033F666006312C302139686
:1015E00025000116B318CF0093C8F8FFB3F7F80031
:1015F0003316C800D18F6319F709232A65008505C2
:10160000E399C5FD371601405CC19305068063125E
:10161000B50823A2F180C16763E6F604504D814707
:10162000054E3D4F930F800293028004A14E938597
:101630000701B315BE00B3F8B60063911503939884
:10164000270033131F011343F3FF3376C300B3188E
:10165000180133E6C800631AF7054CC98507E398FB
:10166000D7FD50CD8280E31D57F2232815010DBF11
:10167000930506C06315B50083A7818099B7E3126F
:10168000C5F483A7C18035BFE31B57F62328650047
:10169000BDB7930506C06315B50023A4F180A5BFAF
:1016A000E31BC5F623A6F180BDB7E31957FAB315BE
:1016B000FE000CD165B793970501C18391C30CC996
:1016C000C16763E4F500C1810CD1828023A2A184AB
:1016D0008280B777DC02938707C01CC137160240AF
:1016E000584211839376F70037070020130707014C
:1016F00036971423504293F6F60F1376060833D725
:10170000D70019E233D7D70258C118C558C582800F
:1017100099C5371702405C4B5D8D48CB8280B71767
:101720000240D84B1345F5FF798DC8CB828099C50F
:10173000371702401C4F5D8D08CF8280B7170240DB
:10174000984F1345F5FF798D88CF828099C537175B
:1017500002405C4F5D8D48CF8280B7170240D84F62
:101760001345F5FF798DC8CF828099C537170240A0
:101770005C475D8D48C78280B7170240D847134544
:10178000F5FF798DC8C7828099C5371702401C4B79
:101790005D8D08CB8280B7170240984B1345F5FF4B
:1017A000798D88CB8280EFE2BF98B737014093876D
:1017B00007C0631DF5000564854513050480753772
:1017C00081451305048055376FE0DF98B707004067
:1017D0006319F50085450545453F814505456D374C
:1017E000E5B793870740E311F5FE85450945693F55
:1017F00081450945EDB71E2137370140130707C062
:10180000C207C1836306E500370700406316E500A1
:10181000BA2193F7F7F8D98FFA2193F7F7CFC207D8
:10182000C183D98F1EA1DE215EB59E211EB5B737BB
:101830000140938707C06306F500B70700406314B3
:10184000F5009C251EB985475EA982801E2189C5A9
:1018500093E717001EA18280C207C183F99BC207CC
:10186000C183CDBF5E2501C6DD8D4EA5828093C5A7
:10187000F5FFFD8DDDBF93C5F5FFC205C1810EA942
:1018800082801E294A25ED8F4205418189C76D8DD1
:101890003335A00082800145828093C5F5FFC205E3
:1018A000C1810EA98280EFE2BF881629F577FD1766
:1018B000F58FF621DA250111D58F1EA95625FD7762
:1018C0009387379FF58FD6212A842EC6D58F9625EC
:1018D000D58FB625D58F5EA55E29C207C18393F744
:1018E000F7CFD98F5EA90808ED33B747014093873A
:1018F0000780B245631EF402F2476547B387E702EB
:101900009841930640060A07B3D7E70233D7D702B8
:10191000B3F7D7021207920793872703B3D7D702EB
:10192000BD8BD98FC207C1831EA405616FE09F8262
:10193000E247E1B791C55E250967D98F5EA5828030
:101940005A25F977FD17F98FD5BF5E2901C6DD8DC0
:101950004EA9828093C5F5FFFD8DDDBF93F5F51F80
:101960004EA182800A216D8D3335A000828093C5FF
:10197000F5FFC205C1810EA18280B707002083A7B1
:10198000070837177A0013070720B3D7E70293F742
:10199000F70F2385F1841307803EB387E702239472
:1019A000F1848280B7F700E0D8438146799BD8C3A1
:1019B00003C7A1843306A70290CBD4CB9843136707
:1019C000070198C398431367170298C3D843058B40
:1019D00075DF9843799B98C38280B7F700E0D843BE
:1019E0008146799BD8C303D781843306A70290CB65
:1019F000D4CB98431367070198C398431367170222
:101A000098C3D843058B75DF9843799B98C3828030
:101A1000EFE20FF22A841165011185452105013B92
:101A2000930700403EC23715014085473EC44C0035
:101A3000E147130505C03EC6013E22C837440140B8
:101A4000B70708000C08130504803ECC02CA231E09
:101A50000100913D854513050480E93D05616FE076
:101A60006FEFEFE24FEBB7440140AE89328901449A
:101A700093840480634524014A856FE00FED93054C
:101A800000042685C53565DDB38789008385070099
:101A900026850504C205C181D135E9BF13870181BF
:101AA0001C43938601523E95636BD500B7560020C8
:101AB0009386068063E5A60008C33E858280FD57B5
:101AC000EDBFB3C7A5008D8B3307C50081E78D47F8
:101AD00063EDC700AA87637EE50894218507850525
:101AE000A38FD7FEE3EBE7FE828093763500AA87CB
:101AF00089CA942185078505A38FD7FE93F6370001
:101B0000C5BF9376C7FF138606FE63F0C70683A39F
:101B1000050083A2450083AF850003AFC50083AEF7
:101B2000050103AE450103A3850183A8C501938583
:101B3000450223A0770003A8C5FF23A2570023A4D2
:101B4000F70123A6E70123A8D70123AAC70123ACE5
:101B5000670023AE17019387470223AE07FF75B7CF
:101B600090419107910523AEC7FEE3EBD7FEE3E674
:101B7000E7F6828039713EDA2ED232D436D63AD8A0
:101B800042DC46DE9387418122CC804326CA06CEC2
:101B9000AA8409C41C4C99E322851D2B0C445410C3
:101BA0002686228536C6EF007016F2406244D24483
:101BB0002161828001119387418122CC804306CE2E
:101BC000AA8519C41C4C89E72AC622851123B2456F
:101BD000104422856244F24005616F007076011165
:101BE00026CA4AC806CE22CC4EC652C4AA842E8922
:101BF00001C51C4D91E3E9299C4C804499E326855D
:101C0000C129971700009387E732631BF402C04095
:101C10005E24A18BB1C71C48A1C7FD59294A1C44A9
:101C200083450900FD17B1E91CC463DD0706228660
:101C3000A94526856928FD576308F502294535A081
:101C400097170000938707316314F4008044C9B7E5
:101C5000971700009387072CE31CF4FAC0444DBF8C
:101C6000A28526851D2255D97D55F2406244D24475
:101C70004249B249224A056182801CC4050963D7E2
:101C80000700184C63CAE700638845011C401387AE
:101C9000170018C08CA361B7228626850D28E31093
:101CA00035F9D9B71C401387170018C0294798A3E6
:101CB00071B793874181AA85884315B7AA8785079D
:101CC00003C7F7FF6DFF3385A7407D1582800111A3
:101CD00022CC26CA4AC806CE4EC6AA842E89328491
:101CE00001C51C4D91E3ED269717000093878724CB
:101CF0006317F406C0401C4C1CC45E24A18BC1C3F6
:101D00001C48B5CF1C4808409379F90F1379F90F97
:101D10001D8D5C486346F500A2852685692C25E566
:101D20001C440505FD171CC41C401387170018C070
:101D3000238037015C486388A7005E24858B81CBB4
:101D4000A9476316F900A2852685B5240DEDF2405A
:101D500062444A85D2444249B2490561828097175C
:101D600000009387271F6314F400804469B7971716
:101D700000009387271AE310F4F8C044ADBFA28592
:101D80002685212041D17D59D9B7411193874181C1
:101D900026C2844322C44AC006C62A892E8489C426
:101DA0009C4C99E326852D2697170000938787186A
:101DB000631BF402C0400317C40093170701C183DB
:101DC00093F68700ADEA93F6070195EEA547232029
:101DD000F900136707045AA47D55B2402244924487
:101DE000024941018280971700009387A716631468
:101DF000F4008044C9B7971700009387A711E31C2C
:101E0000F4FAC0444DBF918B9DC34C5889C99307C8
:101E100044046384F5004A853123232A04025E24A6
:101E20002322040093F7B7FD5EA41C481CC05E2467
:101E300093E787005EA41C4899EB5E2413070020FB
:101E400093F707286385E700A2854A85A1215E24D0
:101E500013F717001DC35C4823240400B307F040A8
:101E60001CCC1C480145B5FB8317C40013F70708B9
:101E70002DD793E707045EA485B7898B014791E3CB
:101E8000584818C4F9BFDE25011122CC26CA06CE57
:101E90004AC84EC613F78700AA842E8479EBD8412E
:101EA000634DE000B841634AE0000145F2406244FE
:101EB000D2444249B2490561828058547DD703A972
:101EC00004009396370123A0040063DB06067048E4
:101ED0005E24918B99C75C401D8E5C5899C33C4031
:101EE0001D8E5C540C50814626858297FD575A24DE
:101EF000631DF5009440F54763E8D706B707402017
:101F00008507B3D7D700858BA5C31C4823220400BF
:101F10001CC09317370163D80700FD576314F50001
:101F20009C4091E368C84C5823A02401BDDD930771
:101F300044046384F5002685F526232A0402B5B7F8
:101F40000C500146854626850297FD572A86E311E7
:101F5000F5F89C40B5DF75476385E7005947639303
:101F6000E70423A0240191B7136707045AA47D5501
:101F700035BF83A90501E38A09F203A905008D8B0A
:101F800023A0350133093941014791E3D84918C4E9
:101F9000E35D20F11C540C50CA864E86268582973C
:101FA0006347A0005E2493E707045EA4C9B7AA991B
:101FB0003309A940F1BF9C49B9CF011122CC06CE0B
:101FC0002A8411C51C4D81E72EC61922B2459717E8
:101FD0000000938727F6639BF5004C408397C5006C
:101FE00095C722856244F240056171BD97170000D4
:101FF000938747F66394F5000C44CDB7971700001C
:10200000938747F1E39CF5FC4C44C9BFF24062441E
:1020100001450561828001458280411122C406C6C6
:102020002A844EA572A5232005002322050023241F
:1020300005002322050623280500232A0500232C5A
:102040000500214681451305C505EFE06F919717FF
:102050000000938707BA5CD097170000938727BCCE
:102060001CD497170000938707C05CD49717000013
:10207000938767C200D01CD8B240224441018280BD
:1020800097050000938565F3A9A2411126C21306A6
:1020900080069384F5FFB384C4024AC02E8922C40B
:1020A00006C6938544071D262A8401CD23200500FA
:1020B00023222501310508C4138684068145EFE0FB
:1020C0002F8A2285B24022449244024941018280F3
:1020D0001C4DADE3411106C622C49707000093874B
:1020E00067FA1CD59387C1819C43232405042326CA
:1020F0000504232805046314F50085471CCD2A84B4
:102100001D2848C02285052808C422852D2048C4E2
:10211000484001469145113708440546A545F53D1F
:1021200048440946C945D53D85471CCCB2402244A8
:1021300041018280828041119387C18126C28443FC
:102140004AC006C69C4C22C42A8999E32685493791
:10215000938484048044DC40FD1763D607009C40D0
:10216000B9CF8440C5BF0317C40039E7C1778507DD
:102170002322040623200400232204002324040035
:102180005CC423280400232A0400232C04002146D5
:1021900081451305C405EFD0BFFC232A0402232C7C
:1021A000040223240404232604042285B24022448A
:1021B00092440249410182801304840671BF914513
:1021C0004A85E13588C051FDB1472320F90001441B
:1021D000E9BF797122D44AD052CC56CA5AC85EC6D9
:1021E00006D626D24ECE2A8AAE8A13048504014929
:1021F000054BFD5B09ECB25022544A8592540259BA
:10220000F249624AD24A424BB24B45618280044451
:1022100083294400FD1963D409000040E1BFDE2496
:10222000637BFB008397E40063877701A685528573
:10223000829A3369A90093848406E9BF1971A6DAEA
:10224000AE848395E500A2DC86DE328463DB050084
:10225000DE2423A0060093F7070885E793070040D4
:102260001DA0300836C6EF009028B246E34205FEB6
:102270007247BD67F98F7977BA9793B717009CC2F9
:10228000F1BF930700041CC0F6506654D6540145B4
:1022900009618280DE25011122CC06CE26CA4AC8F9
:1022A000898B2E8489CF930774041CC01CC8854772
:1022B0005CC8F2406244D2444249056182807400A5
:1022C0003000AA84A53FA2452A892685012219E962
:1022D0008317C40013F7072069FFF19B93E72700DA
:1022E0005EA4D1B7970700009387C7D99CD45E241A
:1022F00008C008C893E707085EA4A2475CC8B247B5
:1023000081CF8315E4002685EF00102111C55E24DE
:10231000F19B93E717005EA45E243369F90023164E
:10232000240141BFDDC183A7C5FF411122C406C6F8
:1023300026C21384C5FF63D307003E94AA84EF002E
:1023400070249387C1849C4381EF2322040023A639
:1023500081842244B2402685924441016F00B0221C
:10236000637EF40014403307D4006396E70098437B
:10237000DC43369718C05CC0D9BFBA87D84319C3AD
:10238000E37DE4FE94433386D700631F860010404C
:10239000B29694C33386D700E31DC7FA104358435F
:1023A000B29694C3D8C375B76375C400B1479CC0D7
:1023B0004DB71040B306C4006316D700144358430A
:1023C000B29614C058C0C0C369B78280011126CA32
:1023D00093843500F19806CE22CC4AC84EC6A1049B
:1023E000B14763F5F404B14463E4B4042A89EF000F
:1023F00070199387C18498433A8429E493870185AF
:102400009C4399E781454A85EF00C07B23A8A184BE
:10241000A6854A85EF00007BFD5963193507B14752
:102420002320F9004A85EF00101629A0E3DE04FA04
:10243000B1471CC10145F2406244D2444249B2490D
:10244000056182801C40858F63CF0702AD4663F62D
:10245000F6001CC03E9404C031A05C4063138702A8
:1024600023A6F1844A85EF0010121305B4009307E8
:10247000440061993307F5405DDF3A94898F1CC0B1
:102480005DBF5CC3C5B72287404085BF13043500DC
:102490007198E30285FCB305A4404A852527E31C17
:1024A00035FBB5BF1C46FD171CC663DA0700184E86
:1024B00063C5E700A9476394F5006FF05F811C4294
:1024C0002E851387170018C28CA38280011122CC9D
:1024D00026CA4AC84EC652C406CE2A89AE8932845C
:1024E000B304D6007D5A63149400014501A80C2062
:1024F0004E864A85453F0504E31745FFF240624496
:10250000D2444249B249224A05618280357122CDC6
:1025100026CB4AC94EC706CF52C556C35AC1DEDEC6
:10252000E2DCE6DAAA89AE843289368409C51C4D1C
:1025300099E3EFF0FFB9971700009387A79F63987F
:10254000F40C83A44900DE24A18BE5C79C48F5C3A5
:1025500093070002A304F1029307000302D22305AC
:10256000F10222C6930B5002971A0000938A8AA0A8
:10257000054C294B4A841C2099C3639F770DB30CEB
:102580002441638D0C00E6864A86A6854E853D3F34
:10259000FD576300F51E9256E69636D21C20638ADC
:1025A000071CFD571309140002C802CE3ECA02CC14
:1025B000A309010482D48345090015465685EF001E
:1025C000E07A13041900C24751E913F7070109C75C
:1025D00013070002A309E10413F7870009C71307D3
:1025E000B002A309E104834609001307A002638F28
:1025F000E606F2474A8481462546182093051400D2
:10260000130707FD6377E60AB5CA3ECE85A897177C
:102610000000938727946395F40083A4890025B76D
:10262000971700009387078FE39FF4F083A4C900F6
:1026300019BFA6854E85EFF04FF519D97D55FA40A3
:102640006A44DA444A49BA492A4A9A4A0A4BF65B2A
:10265000665CD65C0D618280050431BF330555414F
:102660003315AC00C98F3EC82289B1B732479306F3
:102670004700184336C6634707023ACE182093072F
:10268000E002631DF70418309307A002631BF702F2
:10269000B2470904138747009C433AC663C1070247
:1026A0003ECA2DA83307E04093E727003ACE3EC844
:1026B000F1B7B387670385462E84BA973DBFFD57B0
:1026C000C5B7050402CA81468147254618209305EF
:1026D0001400130707FD6374E606F9F20C200D469B
:1026E0001715000013058589512511CD9717000096
:1026F0009387C7881D8D93070004B397A7004245B1
:1027000005045D8D2AC80C20194617150000130515
:102710002587130914002304B102892D35C197E7D9
:10272000FFFF9387278E95E74247B247137707103D
:1027300009CF91073EC69257D2973ED225BDB387A7
:10274000670385462E84BA9751B79D07E19BA10781
:10275000D5B7780097060000938686D726860C08A2
:102760004E8597000000E7000000FD572A8AE31419
:10277000F5FCDE2493F70704E39207EC1255C1B58C
:102780007800970600009386A6D426860C084E850E
:10279000012AE1BF797156CA9C49BA8A984522D468
:1027A00026D24ECE52CC06D64AD05AC85EC6AA8988
:1027B0002E84B284368A63D3E700BA879CC003476D
:1027C000340419C385079CC01C4093F7070281C7D6
:1027D0009C4089079CC00329040013796900631A8F
:1027E0000900130B9401FD5B5C449840998F634C86
:1027F000F9041C408346340493F70702B336D00033
:10280000A5EB13063404D2854E85829AFD576303E7
:10281000F5041C4011469840998B544481446397B9
:10282000C700B384E64063D3040081441C441848C5
:102830006354F700998FBE94014969047D5B6398E6
:102840002405014509A885465A86D2854E85829A77
:10285000631E75017D55B250225492540259F249BB
:10286000624AD24A424BB24B456182800509ADBFF4
:102870003307D40013060003A301C704034754041D
:1028800093871600A2978906A381E7049DBF85461A
:102890002286D2854E85829AE30E65FB050945B7EF
:1028A000797122D426D24AD04ECE06D652CC56CA00
:1028B0005AC8B689942D930790063289AA842E842B
:1028C00013863504638DF60263E2D706930780050D
:1028D0006385F61863EDD700638D062093073004F7
:1028E000638EF60A930A24042301D404C9A0930733
:1028F00030066385F60A93074006E395F6FE1C4012
:10290000084393F6070893054500C5C61C410CC350
:1029100063D807001307D002B307F040A301E40413
:102920009706000093864666294765A89307000727
:102930006381F61663E5D7029307E0066388F6180D
:102940009307F006E390F6FA0C401C4313F80508D1
:10295000138547006307080608C39C4385A89307AF
:102960005007E383F6FE930780076388F612930708
:102970003007E399F6F61C43D04181459386470022
:1029800014C383AA07005685D52601C533055541D2
:1029900048C05C401CC8A301040461A81C43930AFE
:1029A0002404938647009C4314C32301F404854701
:1029B000D5B793F607041C410CC3B9DAC207C18727
:1029C00081BF93F5050408C3C9D99E231307F006F8
:1029D0006386E60E970600009386065B2947A301EF
:1029E00004044C400CC463C5050008406D9908C040
:1029F00099E3B28A89CDB28AB3F5E702FD1AB6959A
:102A00008C212380BA00B3D5E70263FFE70AA14710
:102A1000631EF7001C40858B91CB58401C4863C750
:102A2000E70093070003A38FFAFEFD1A3306564111
:102A300010C84E87CA867000A2852685A13B7D5AA4
:102A4000631D450B7D55B250225492540259F249F0
:102A5000624AD24A424B45618280A382D5049706DE
:102A60000000938666520C40084313F805081C4189
:102A70001105630D080208C313F7150001C793E59C
:102A800005020CC04147A1FF0C4093F5F5FD0CC0B9
:102A9000B9B79C4193E707029CC193078007A30243
:102AA000F404970600009386664F75BF13F805047B
:102AB00008C3E30308FCC207C1837DBF970600007B
:102AC0009386864C214721BFAE873DB794411C4376
:102AD000CC4913F80608138547006306080008C3AD
:102AE0009C438CC339A008C393F606049C43F5DAD3
:102AF0008EA323280400B28A2DBF14485686CA85A7
:102B000026858299E30045F51C40898B8DE7B24705
:102B10004844E35AF5F23E853DB785465686CA8558
:102B200026858299E30065F3050A5C443247998F54
:102B3000E345FAFEE9BF014A930A94017D5BF5B7CC
:102B4000011122CC06CE2A8409C91C4D99E732C650
:102B50002EC4EFF0EFD73246A245970700009387C7
:102B6000673D6316F60250401C46FD171CC663D035
:102B70000704184E63C7E70093F7F50F29476398DA
:102B8000E70222856244F24005616FF04F94970797
:102B900000009387273C6314F6001044F1B79707B1
:102BA000000093872737E311F6FC504475BF1C42A1
:102BB00013F5F50F1387170018C28CA3F240624477
:102BC00005618280411122C42A842E8523AE0150E2
:102BD00006C6EFE0BFECFD576317F5009387C151C0
:102BE0009C4391C31CC0B2402244410182804111E8
:102BF00022C42E848395E50006C679226349050028
:102C00007C48AA977CC8B2402244410182805E245D
:102C10007D777D17F98F5EA4FDB7DE25011122CCEB
:102C200026CA4AC84EC606CE93F70710AA842E8439
:102C30003289B68991C78395E50089460146092204
:102C40005E247D777D17F98F5EA48315E4006244CE
:102C5000F240CE864A86B24942492685D244056171
:102C600025A8411122C42E848395E50006C6C928F3
:102C7000FD575A24631AF500FD77FD17F98F5EA4FE
:102C8000B2402244410182808567D98F5EA468C822
:102C9000C5BF8395E50005A8411122C42A842E856D
:102CA000B285368623AE015006C6EFE09FDBFD57A6
:102CB0006317F5009387C1519C4391C31CC0B24078
:102CC000224441018280411122C42A842E8523AEF0
:102CD000015006C6C520FD576317F5009387C15103
:102CE0009C4391C31CC0B2402244410182804111E7
:102CF00022C42A842E85B28523AE015006C6C9207F
:102D0000FD576317F5009387C1519C4391C31CC0C5
:102D1000B240224441018280411122C42A842E857E
:102D200023AE015006C65D20FD576317F50093875B
:102D3000C1519C4391C31CC0B240224441018280D6
:102D4000411122C42A842E85B285368623AE0150D5
:102D500006C65920FD576317F5009387C1519C4360
:102D600091C31CC0B24022444101828093F5F50F0B
:102D70002A966314C500014582801C21E38EB7FEAC
:102D80000505C5BF82808280411122C42A842E8518
:102D9000B285368623AE015006C6A920FD576317BB
:102DA000F5009387C1519C4391C31CC0B24022449B
:102DB000410182809307800523AEF1507D558280CA
:102DC0009307800523AEF1507D55828093078005DF
:102DD00023AEF150014582809307800523AEF15068
:102DE0007D5582809307800523AEF1507D5582800A
:102DF00055305F4F3A2530386C780A0054585B25BF
:102E0000645D3A20000000000D000000CC100000BE
:102E1000E20F0000760E000042100000760E000067
:102E2000700F0000D00E0000760E0000BA0F0000F8
:102E3000D00F0000C61000007A0F000053797374A1
:102E4000656D436C6B3A25640D0A00004368697038
:102E500049443A253038780D0A000000786F6D201B
:102E60006368617070707070707070707070707086
:102E70007070700D0A00000009024300020100801A
:102E800032090400000102020100052400100105BE
:102E90002401000104240202052406000107058123
:102EA0000340000109040100020A000000070502B6
:102EB00002400000070583024000000012011001DB
:102EC00002000040861A0CFE010001020001000011
:102ED0000E037700630068002E0063006E000000A0
:102EE0001603550053004200200053006500720095
:102EF000690061006C0000001603300031003200F0
:102F00003300340035003600370038003900000047
:102F100000000000000000000000000000000000B1
:102F200000000000000000000000000000000000A1
:102F30000000000000000000000000000000000091
:102F40000000000000000000000000000000000081
:102F50000000000000000000000000000000000071
:102F60000000000000000000000000000000000061
:102F7000232D302B20000000686C4C0065666745EF
:102F80004647000030313233343536373839414224
:102F90004344454600000000303132333435363783
:0C2FA0003839616263646566000000005F
:102FAC0001020304050607080102030405060708CD
:102FBC0001020304050607080102030405060708BD
:102FCC0000000000302F0000502F0000102F0000D8
:102FDC0000000000000000000000000000000000E5
:102FEC0000000000000000000000000000000000D5
:102FFC0000000000000000000000000000000000C5
:10300C0000000000000000000000000000000000B4
:10301C0000000000000000000000000000000000A4
:10302C00006CDC024444444444444444444444441A
:10303C00A00D002020000020040309042000002023
:00000001FF
